{
  "_format": "hh-sol-artifact-1",
  "contractName": "AaveILendingPoolMock",
  "sourceName": "contracts/mocks/AaveILendingPoolMock.sol",
  "abi": [
    {
      "inputs": [
        {
          "internalType": "address",
          "name": "token_",
          "type": "address"
        },
        {
          "internalType": "address",
          "name": "aTokenAddress_",
          "type": "address"
        }
      ],
      "stateMutability": "nonpayable",
      "type": "constructor"
    },
    {
      "anonymous": false,
      "inputs": [
        {
          "indexed": true,
          "internalType": "address",
          "name": "reserve",
          "type": "address"
        },
        {
          "indexed": false,
          "internalType": "address",
          "name": "user",
          "type": "address"
        },
        {
          "indexed": true,
          "internalType": "address",
          "name": "onBehalfOf",
          "type": "address"
        },
        {
          "indexed": false,
          "internalType": "uint256",
          "name": "amount",
          "type": "uint256"
        },
        {
          "indexed": false,
          "internalType": "uint256",
          "name": "borrowRateMode",
          "type": "uint256"
        },
        {
          "indexed": false,
          "internalType": "uint256",
          "name": "borrowRate",
          "type": "uint256"
        },
        {
          "indexed": true,
          "internalType": "uint16",
          "name": "referral",
          "type": "uint16"
        }
      ],
      "name": "Borrow",
      "type": "event"
    },
    {
      "anonymous": false,
      "inputs": [
        {
          "indexed": true,
          "internalType": "address",
          "name": "reserve",
          "type": "address"
        },
        {
          "indexed": false,
          "internalType": "address",
          "name": "user",
          "type": "address"
        },
        {
          "indexed": true,
          "internalType": "address",
          "name": "onBehalfOf",
          "type": "address"
        },
        {
          "indexed": false,
          "internalType": "uint256",
          "name": "amount",
          "type": "uint256"
        },
        {
          "indexed": true,
          "internalType": "uint16",
          "name": "referral",
          "type": "uint16"
        }
      ],
      "name": "Deposit",
      "type": "event"
    },
    {
      "anonymous": false,
      "inputs": [
        {
          "indexed": true,
          "internalType": "address",
          "name": "target",
          "type": "address"
        },
        {
          "indexed": true,
          "internalType": "address",
          "name": "initiator",
          "type": "address"
        },
        {
          "indexed": true,
          "internalType": "address",
          "name": "asset",
          "type": "address"
        },
        {
          "indexed": false,
          "internalType": "uint256",
          "name": "amount",
          "type": "uint256"
        },
        {
          "indexed": false,
          "internalType": "uint256",
          "name": "premium",
          "type": "uint256"
        },
        {
          "indexed": false,
          "internalType": "uint16",
          "name": "referralCode",
          "type": "uint16"
        }
      ],
      "name": "FlashLoan",
      "type": "event"
    },
    {
      "anonymous": false,
      "inputs": [
        {
          "indexed": true,
          "internalType": "address",
          "name": "collateralAsset",
          "type": "address"
        },
        {
          "indexed": true,
          "internalType": "address",
          "name": "debtAsset",
          "type": "address"
        },
        {
          "indexed": true,
          "internalType": "address",
          "name": "user",
          "type": "address"
        },
        {
          "indexed": false,
          "internalType": "uint256",
          "name": "debtToCover",
          "type": "uint256"
        },
        {
          "indexed": false,
          "internalType": "uint256",
          "name": "liquidatedCollateralAmount",
          "type": "uint256"
        },
        {
          "indexed": false,
          "internalType": "address",
          "name": "liquidator",
          "type": "address"
        },
        {
          "indexed": false,
          "internalType": "bool",
          "name": "receiveAToken",
          "type": "bool"
        }
      ],
      "name": "LiquidationCall",
      "type": "event"
    },
    {
      "anonymous": false,
      "inputs": [],
      "name": "Paused",
      "type": "event"
    },
    {
      "anonymous": false,
      "inputs": [
        {
          "indexed": true,
          "internalType": "address",
          "name": "reserve",
          "type": "address"
        },
        {
          "indexed": true,
          "internalType": "address",
          "name": "user",
          "type": "address"
        }
      ],
      "name": "RebalanceStableBorrowRate",
      "type": "event"
    },
    {
      "anonymous": false,
      "inputs": [
        {
          "indexed": true,
          "internalType": "address",
          "name": "reserve",
          "type": "address"
        },
        {
          "indexed": true,
          "internalType": "address",
          "name": "user",
          "type": "address"
        },
        {
          "indexed": true,
          "internalType": "address",
          "name": "repayer",
          "type": "address"
        },
        {
          "indexed": false,
          "internalType": "uint256",
          "name": "amount",
          "type": "uint256"
        }
      ],
      "name": "Repay",
      "type": "event"
    },
    {
      "anonymous": false,
      "inputs": [
        {
          "indexed": true,
          "internalType": "address",
          "name": "reserve",
          "type": "address"
        },
        {
          "indexed": false,
          "internalType": "uint256",
          "name": "liquidityRate",
          "type": "uint256"
        },
        {
          "indexed": false,
          "internalType": "uint256",
          "name": "stableBorrowRate",
          "type": "uint256"
        },
        {
          "indexed": false,
          "internalType": "uint256",
          "name": "variableBorrowRate",
          "type": "uint256"
        },
        {
          "indexed": false,
          "internalType": "uint256",
          "name": "liquidityIndex",
          "type": "uint256"
        },
        {
          "indexed": false,
          "internalType": "uint256",
          "name": "variableBorrowIndex",
          "type": "uint256"
        }
      ],
      "name": "ReserveDataUpdated",
      "type": "event"
    },
    {
      "anonymous": false,
      "inputs": [
        {
          "indexed": true,
          "internalType": "address",
          "name": "reserve",
          "type": "address"
        },
        {
          "indexed": true,
          "internalType": "address",
          "name": "user",
          "type": "address"
        }
      ],
      "name": "ReserveUsedAsCollateralDisabled",
      "type": "event"
    },
    {
      "anonymous": false,
      "inputs": [
        {
          "indexed": true,
          "internalType": "address",
          "name": "reserve",
          "type": "address"
        },
        {
          "indexed": true,
          "internalType": "address",
          "name": "user",
          "type": "address"
        }
      ],
      "name": "ReserveUsedAsCollateralEnabled",
      "type": "event"
    },
    {
      "anonymous": false,
      "inputs": [
        {
          "indexed": true,
          "internalType": "address",
          "name": "reserve",
          "type": "address"
        },
        {
          "indexed": true,
          "internalType": "address",
          "name": "user",
          "type": "address"
        },
        {
          "indexed": false,
          "internalType": "uint256",
          "name": "rateMode",
          "type": "uint256"
        }
      ],
      "name": "Swap",
      "type": "event"
    },
    {
      "anonymous": false,
      "inputs": [],
      "name": "Unpaused",
      "type": "event"
    },
    {
      "anonymous": false,
      "inputs": [
        {
          "indexed": true,
          "internalType": "address",
          "name": "reserve",
          "type": "address"
        },
        {
          "indexed": true,
          "internalType": "address",
          "name": "user",
          "type": "address"
        },
        {
          "indexed": true,
          "internalType": "address",
          "name": "to",
          "type": "address"
        },
        {
          "indexed": false,
          "internalType": "uint256",
          "name": "amount",
          "type": "uint256"
        }
      ],
      "name": "Withdraw",
      "type": "event"
    },
    {
      "inputs": [],
      "name": "DAYS_IN_YEAR",
      "outputs": [
        {
          "internalType": "uint256",
          "name": "",
          "type": "uint256"
        }
      ],
      "stateMutability": "view",
      "type": "function"
    },
    {
      "inputs": [],
      "name": "NOMINAL_ANNUAL_RATE",
      "outputs": [
        {
          "internalType": "uint256",
          "name": "",
          "type": "uint256"
        }
      ],
      "stateMutability": "view",
      "type": "function"
    },
    {
      "inputs": [],
      "name": "NUM_FRACTION_BITS",
      "outputs": [
        {
          "internalType": "uint256",
          "name": "",
          "type": "uint256"
        }
      ],
      "stateMutability": "view",
      "type": "function"
    },
    {
      "inputs": [],
      "name": "PERCENT_100",
      "outputs": [
        {
          "internalType": "uint256",
          "name": "",
          "type": "uint256"
        }
      ],
      "stateMutability": "view",
      "type": "function"
    },
    {
      "inputs": [],
      "name": "SECONDS_IN_DAY",
      "outputs": [
        {
          "internalType": "uint256",
          "name": "",
          "type": "uint256"
        }
      ],
      "stateMutability": "view",
      "type": "function"
    },
    {
      "inputs": [],
      "name": "SECONDS_IN_YEAR",
      "outputs": [
        {
          "internalType": "uint256",
          "name": "",
          "type": "uint256"
        }
      ],
      "stateMutability": "view",
      "type": "function"
    },
    {
      "inputs": [],
      "name": "aTokenAddress",
      "outputs": [
        {
          "internalType": "address",
          "name": "",
          "type": "address"
        }
      ],
      "stateMutability": "view",
      "type": "function"
    },
    {
      "inputs": [
        {
          "internalType": "address",
          "name": "asset",
          "type": "address"
        },
        {
          "internalType": "uint256",
          "name": "amount",
          "type": "uint256"
        },
        {
          "internalType": "uint256",
          "name": "interestRateMode",
          "type": "uint256"
        },
        {
          "internalType": "uint16",
          "name": "referralCode",
          "type": "uint16"
        },
        {
          "internalType": "address",
          "name": "onBehalfOf",
          "type": "address"
        }
      ],
      "name": "borrow",
      "outputs": [],
      "stateMutability": "nonpayable",
      "type": "function"
    },
    {
      "inputs": [
        {
          "internalType": "address",
          "name": "asset",
          "type": "address"
        },
        {
          "internalType": "uint256",
          "name": "amount",
          "type": "uint256"
        },
        {
          "internalType": "address",
          "name": "onBehalfOf",
          "type": "address"
        },
        {
          "internalType": "uint16",
          "name": "referralCode",
          "type": "uint16"
        }
      ],
      "name": "deposit",
      "outputs": [],
      "stateMutability": "nonpayable",
      "type": "function"
    },
    {
      "inputs": [
        {
          "internalType": "address",
          "name": "asset",
          "type": "address"
        },
        {
          "internalType": "address",
          "name": "from",
          "type": "address"
        },
        {
          "internalType": "address",
          "name": "to",
          "type": "address"
        },
        {
          "internalType": "uint256",
          "name": "amount",
          "type": "uint256"
        },
        {
          "internalType": "uint256",
          "name": "balanceFromBefore",
          "type": "uint256"
        },
        {
          "internalType": "uint256",
          "name": "balanceToBefore",
          "type": "uint256"
        }
      ],
      "name": "finalizeTransfer",
      "outputs": [],
      "stateMutability": "nonpayable",
      "type": "function"
    },
    {
      "inputs": [
        {
          "internalType": "address",
          "name": "receiverAddress",
          "type": "address"
        },
        {
          "internalType": "address[]",
          "name": "assets",
          "type": "address[]"
        },
        {
          "internalType": "uint256[]",
          "name": "amounts",
          "type": "uint256[]"
        },
        {
          "internalType": "uint256[]",
          "name": "modes",
          "type": "uint256[]"
        },
        {
          "internalType": "address",
          "name": "onBehalfOf",
          "type": "address"
        },
        {
          "internalType": "bytes",
          "name": "params",
          "type": "bytes"
        },
        {
          "internalType": "uint16",
          "name": "referralCode",
          "type": "uint16"
        }
      ],
      "name": "flashLoan",
      "outputs": [],
      "stateMutability": "nonpayable",
      "type": "function"
    },
    {
      "inputs": [],
      "name": "getAddressesProvider",
      "outputs": [
        {
          "internalType": "uint256",
          "name": "",
          "type": "uint256"
        }
      ],
      "stateMutability": "view",
      "type": "function"
    },
    {
      "inputs": [
        {
          "internalType": "address",
          "name": "asset",
          "type": "address"
        }
      ],
      "name": "getConfiguration",
      "outputs": [
        {
          "components": [
            {
              "internalType": "uint256",
              "name": "data",
              "type": "uint256"
            }
          ],
          "internalType": "struct DataTypes.ReserveConfigurationMap",
          "name": "",
          "type": "tuple"
        }
      ],
      "stateMutability": "view",
      "type": "function"
    },
    {
      "inputs": [
        {
          "internalType": "address",
          "name": "asset",
          "type": "address"
        }
      ],
      "name": "getReserveData",
      "outputs": [
        {
          "components": [
            {
              "components": [
                {
                  "internalType": "uint256",
                  "name": "data",
                  "type": "uint256"
                }
              ],
              "internalType": "struct DataTypes.ReserveConfigurationMap",
              "name": "configuration",
              "type": "tuple"
            },
            {
              "internalType": "uint128",
              "name": "liquidityIndex",
              "type": "uint128"
            },
            {
              "internalType": "uint128",
              "name": "variableBorrowIndex",
              "type": "uint128"
            },
            {
              "internalType": "uint128",
              "name": "currentLiquidityRate",
              "type": "uint128"
            },
            {
              "internalType": "uint128",
              "name": "currentVariableBorrowRate",
              "type": "uint128"
            },
            {
              "internalType": "uint128",
              "name": "currentStableBorrowRate",
              "type": "uint128"
            },
            {
              "internalType": "uint40",
              "name": "lastUpdateTimestamp",
              "type": "uint40"
            },
            {
              "internalType": "address",
              "name": "aTokenAddress",
              "type": "address"
            },
            {
              "internalType": "address",
              "name": "stableDebtTokenAddress",
              "type": "address"
            },
            {
              "internalType": "address",
              "name": "variableDebtTokenAddress",
              "type": "address"
            },
            {
              "internalType": "address",
              "name": "interestRateStrategyAddress",
              "type": "address"
            },
            {
              "internalType": "uint8",
              "name": "id",
              "type": "uint8"
            }
          ],
          "internalType": "struct DataTypes.ReserveData",
          "name": "",
          "type": "tuple"
        }
      ],
      "stateMutability": "view",
      "type": "function"
    },
    {
      "inputs": [
        {
          "internalType": "address",
          "name": "asset",
          "type": "address"
        }
      ],
      "name": "getReserveNormalizedIncome",
      "outputs": [
        {
          "internalType": "uint256",
          "name": "",
          "type": "uint256"
        }
      ],
      "stateMutability": "view",
      "type": "function"
    },
    {
      "inputs": [
        {
          "internalType": "address",
          "name": "asset",
          "type": "address"
        }
      ],
      "name": "getReserveNormalizedVariableDebt",
      "outputs": [
        {
          "internalType": "uint256",
          "name": "",
          "type": "uint256"
        }
      ],
      "stateMutability": "view",
      "type": "function"
    },
    {
      "inputs": [],
      "name": "getReservesList",
      "outputs": [
        {
          "internalType": "address[]",
          "name": "",
          "type": "address[]"
        }
      ],
      "stateMutability": "view",
      "type": "function"
    },
    {
      "inputs": [
        {
          "internalType": "address",
          "name": "user",
          "type": "address"
        }
      ],
      "name": "getUserAccountData",
      "outputs": [
        {
          "internalType": "uint256",
          "name": "totalCollateralETH",
          "type": "uint256"
        },
        {
          "internalType": "uint256",
          "name": "totalDebtETH",
          "type": "uint256"
        },
        {
          "internalType": "uint256",
          "name": "availableBorrowsETH",
          "type": "uint256"
        },
        {
          "internalType": "uint256",
          "name": "currentLiquidationThreshold",
          "type": "uint256"
        },
        {
          "internalType": "uint256",
          "name": "ltv",
          "type": "uint256"
        },
        {
          "internalType": "uint256",
          "name": "healthFactor",
          "type": "uint256"
        }
      ],
      "stateMutability": "view",
      "type": "function"
    },
    {
      "inputs": [
        {
          "internalType": "address",
          "name": "user",
          "type": "address"
        }
      ],
      "name": "getUserConfiguration",
      "outputs": [
        {
          "components": [
            {
              "internalType": "uint256",
              "name": "data",
              "type": "uint256"
            }
          ],
          "internalType": "struct DataTypes.UserConfigurationMap",
          "name": "",
          "type": "tuple"
        }
      ],
      "stateMutability": "view",
      "type": "function"
    },
    {
      "inputs": [
        {
          "internalType": "address",
          "name": "asset",
          "type": "address"
        },
        {
          "internalType": "address",
          "name": "atokenAddress",
          "type": "address"
        },
        {
          "internalType": "address",
          "name": "stableDebtAddress",
          "type": "address"
        },
        {
          "internalType": "address",
          "name": "variableDebtAddress",
          "type": "address"
        },
        {
          "internalType": "address",
          "name": "interestRateStrategyAddress",
          "type": "address"
        }
      ],
      "name": "initReserve",
      "outputs": [],
      "stateMutability": "nonpayable",
      "type": "function"
    },
    {
      "inputs": [
        {
          "internalType": "address",
          "name": "collateralAsset",
          "type": "address"
        },
        {
          "internalType": "address",
          "name": "debtAsset",
          "type": "address"
        },
        {
          "internalType": "address",
          "name": "user",
          "type": "address"
        },
        {
          "internalType": "uint256",
          "name": "debtToCover",
          "type": "uint256"
        },
        {
          "internalType": "bool",
          "name": "receiveAToken",
          "type": "bool"
        }
      ],
      "name": "liquidationCall",
      "outputs": [],
      "stateMutability": "nonpayable",
      "type": "function"
    },
    {
      "inputs": [],
      "name": "liquidityIndex",
      "outputs": [
        {
          "internalType": "uint256",
          "name": "",
          "type": "uint256"
        }
      ],
      "stateMutability": "view",
      "type": "function"
    },
    {
      "inputs": [],
      "name": "paused",
      "outputs": [
        {
          "internalType": "bool",
          "name": "",
          "type": "bool"
        }
      ],
      "stateMutability": "view",
      "type": "function"
    },
    {
      "inputs": [
        {
          "internalType": "address",
          "name": "asset",
          "type": "address"
        },
        {
          "internalType": "address",
          "name": "user",
          "type": "address"
        }
      ],
      "name": "rebalanceStableBorrowRate",
      "outputs": [],
      "stateMutability": "nonpayable",
      "type": "function"
    },
    {
      "inputs": [
        {
          "internalType": "address",
          "name": "asset",
          "type": "address"
        },
        {
          "internalType": "uint256",
          "name": "amount",
          "type": "uint256"
        },
        {
          "internalType": "uint256",
          "name": "rateMode",
          "type": "uint256"
        },
        {
          "internalType": "address",
          "name": "onBehalfOf",
          "type": "address"
        }
      ],
      "name": "repay",
      "outputs": [
        {
          "internalType": "uint256",
          "name": "",
          "type": "uint256"
        }
      ],
      "stateMutability": "nonpayable",
      "type": "function"
    },
    {
      "inputs": [
        {
          "internalType": "address",
          "name": "asset",
          "type": "address"
        },
        {
          "internalType": "uint256",
          "name": "configuration",
          "type": "uint256"
        }
      ],
      "name": "setConfiguration",
      "outputs": [],
      "stateMutability": "nonpayable",
      "type": "function"
    },
    {
      "inputs": [
        {
          "internalType": "bool",
          "name": "val",
          "type": "bool"
        }
      ],
      "name": "setPause",
      "outputs": [],
      "stateMutability": "nonpayable",
      "type": "function"
    },
    {
      "inputs": [
        {
          "internalType": "address",
          "name": "asset",
          "type": "address"
        },
        {
          "internalType": "address",
          "name": "rateStrategyAddress",
          "type": "address"
        }
      ],
      "name": "setReserveInterestRateStrategyAddress",
      "outputs": [],
      "stateMutability": "nonpayable",
      "type": "function"
    },
    {
      "inputs": [
        {
          "internalType": "address",
          "name": "asset",
          "type": "address"
        },
        {
          "internalType": "bool",
          "name": "useAsCollateral",
          "type": "bool"
        }
      ],
      "name": "setUserUseReserveAsCollateral",
      "outputs": [],
      "stateMutability": "nonpayable",
      "type": "function"
    },
    {
      "inputs": [
        {
          "internalType": "address",
          "name": "asset",
          "type": "address"
        },
        {
          "internalType": "uint256",
          "name": "rateMode",
          "type": "uint256"
        }
      ],
      "name": "swapBorrowRateMode",
      "outputs": [],
      "stateMutability": "nonpayable",
      "type": "function"
    },
    {
      "inputs": [],
      "name": "testTransferFail",
      "outputs": [
        {
          "internalType": "bool",
          "name": "",
          "type": "bool"
        }
      ],
      "stateMutability": "view",
      "type": "function"
    },
    {
      "inputs": [],
      "name": "token",
      "outputs": [
        {
          "internalType": "contract UnderlyingAssetMock",
          "name": "",
          "type": "address"
        }
      ],
      "stateMutability": "view",
      "type": "function"
    },
    {
      "inputs": [
        {
          "internalType": "address",
          "name": "asset",
          "type": "address"
        },
        {
          "internalType": "uint256",
          "name": "amountToWithdraw",
          "type": "uint256"
        },
        {
          "internalType": "address",
          "name": "to",
          "type": "address"
        }
      ],
      "name": "withdraw",
      "outputs": [
        {
          "internalType": "uint256",
          "name": "",
          "type": "uint256"
        }
      ],
      "stateMutability": "nonpayable",
      "type": "function"
    }
  ],
  "bytecode": "0x60806040526008805460ff60a01b191690553480156200001e57600080fd5b506040516200330e3803806200330e83398101604081905262000041916200020d565b6001600160a01b038216620000735760405162461bcd60e51b81526004016200006a90620002a1565b60405180910390fd5b6001600160a01b0381166200009c5760405162461bcd60e51b81526004016200006a9062000244565b600880546001600160a01b038085166001600160a01b031992831681179093556007805491851691909216179055600090815260046020908152604090912090620000f090620016a462000177821b17901c565b8160010160006101000a8154816001600160801b0302191690836001600160801b031602179055506000620001496005620001356200017760201b620016a41760201c565b6200018760201b620016b41790919060201c565b60029290920180546001600160801b0319166001600160801b039093169290921790915550620002fe915050565b6b033b2e3c9fd0803ce800000090565b6000808211620001de576040805162461bcd60e51b815260206004820152601a60248201527f536166654d6174683a206469766973696f6e206279207a65726f000000000000604482015290519081900360640190fd5b818381620001e857fe5b049392505050565b80516001600160a01b03811681146200020857600080fd5b919050565b6000806040838503121562000220578182fd5b6200022b83620001f0565b91506200023b60208401620001f0565b90509250929050565b6020808252603f908201527f41617665494c656e64696e67506f6f6c4d6f636b3a2061546f6b656e4164647260408201527f657373206164647265737320697320746865207a65726f206164647265737300606082015260800190565b60208082526037908201527f41617665494c656e64696e67506f6f6c4d6f636b3a20746f6b656e206164647260408201527f65737320697320746865207a65726f2061646472657373000000000000000000606082015260800190565b613000806200030e6000396000f3fe608060405234801561001057600080fd5b506004361061020a5760003560e01c806394ba89a21161012a578063c44b11f7116100bd578063d5ed39331161008c578063e8eda9df11610071578063e8eda9df1461043b578063fc0c546a1461044e578063fe65acfe146104565761020a565b8063d5ed393314610413578063dcfc0ced146104265761020a565b8063c44b11f7146103c5578063cd112382146103d8578063d15e0053146103eb578063d1946dbc146103fe5761020a565b8063b8d29276116100f9578063b8d2927614610372578063bbf44f3314610385578063bedb86fb1461038d578063bf92857c146103a05761020a565b806394ba89a214610331578063a1e31f7914610344578063a415bcad1461034c578063ab9c4b5d1461035f5761020a565b80635a3b74b9116101a25780636309cdca116101715780636309cdca146102fb57806369328dec146103035780637a708e92146103165780637e780157146103295761020a565b80635a3b74b9146102c35780635c975abb146102d65780635dcc9391146102eb57806361a52a36146102f35761020a565b8063386497fd116101de578063386497fd146102755780634417a58314610288578063498783b9146102a8578063573ade81146102b05761020a565b8062a718a91461020f57806302378932146102245780631d2118f91461024257806335ea6a7514610255575b600080fd5b61022261021d3660046127ea565b61045e565b005b61022c610482565b6040516102399190612f26565b60405180910390f35b610222610250366004612754565b610488565b61026861026336600461273a565b6104de565b6040516102399190612e33565b61022c61028336600461273a565b6105f3565b61029b61029636600461273a565b610627565b6040516102399190612e29565b61022c610667565b61022c6102be366004612a84565b61066c565b6102226102d136600461299e565b610705565b6102de6107c0565b6040516102399190612c96565b61022c6107c9565b61022c6107d1565b6102de6107d8565b61022c6103113660046129fd565b6107f9565b610222610324366004612786565b610acc565b61022c610b7d565b61022261033f3660046129d4565b610b82565b61022c610c1a565b61022261035a366004612abe565b610c1f565b61022261036d3660046128a9565b610c43565b6102226103803660046129d4565b610f4c565b61022c610f75565b61022261039b366004612afa565b610f7b565b6103b36103ae36600461273a565b61100c565b60405161023996959493929190612f49565b61029b6103d336600461273a565b61101e565b6102226103e6366004612754565b61105e565b61022c6103f936600461273a565b611121565b61040661114f565b6040516102399190612c3c565b61022261042136600461284b565b61120f565b61042e611443565b6040516102399190612b91565b610222610449366004612a38565b61145f565b61042e611682565b61022c61169e565b50505073ffffffffffffffffffffffffffffffffffffffff16600052506004602052565b61016d81565b73ffffffffffffffffffffffffffffffffffffffff918216600090815260046020526040902060070180547fffffffffffffffffffffffff00000000000000000000000000000000000000001691909216179055565b6104e66125b1565b5073ffffffffffffffffffffffffffffffffffffffff81811660009081526004602081815260409283902083516101a08101855281546101808201908152815260018201546fffffffffffffffffffffffffffffffff80821694830194909452700100000000000000000000000000000000908190048416958201959095526002820154808416606083015285900483166080820152600382015492831660a08201529390910464ffffffffff1660c084015290810154831660e08301526005810154831661010083015260068101548316610120830152600701549182166101408201527401000000000000000000000000000000000000000090910460ff166101608201525b919050565b73ffffffffffffffffffffffffffffffffffffffff8116600090815260046020526040812061062190611735565b92915050565b61062f61261c565b5073ffffffffffffffffffffffffffffffffffffffff1660009081526005602090815260409182902082519182019092529054815290565b604081565b73ffffffffffffffffffffffffffffffffffffffff841660009081526004602052604081208161069b826117eb565b600482015460405173ffffffffffffffffffffffffffffffffffffffff918216913391878216918b16907f4cdde6e09bb755c9a5589ebaec640bbfedff1362d4b255ebf8339782b9942faa906106f2908790612f26565b60405180910390a4509695505050505050565b73ffffffffffffffffffffffffffffffffffffffff82166000908152600460205260409020811561077757604051339073ffffffffffffffffffffffffffffffffffffffff8516907e058a56ea94653cdf4f152d227ace22d4c00ad99e2a43f58cb7d9e3feb295f290600090a36107bb565b604051339073ffffffffffffffffffffffffffffffffffffffff8516907f44c58d81365b66dd4b1a7f36c25aa97b8c71c361ee4937adc1a00000227db5dd90600090a35b505050565b60035460ff1690565b6301e1338081565b6201518081565b60085474010000000000000000000000000000000000000000900460ff1681565b73ffffffffffffffffffffffffffffffffffffffff808416600090815260046020819052604080832080830154600780547fffffffffffffffffffffffff000000000000000000000000000000000000000016918716919091179081905560018201546fffffffffffffffffffffffffffffffff1660065591517f1da24f3e0000000000000000000000000000000000000000000000000000000081529394909385939290911691631da24f3e916108b391339101612b91565b60206040518083038186803b1580156108cb57600080fd5b505afa1580156108df573d6000803e3d6000fd5b505050506040513d601f19601f820116820180604052508101906109039190612b32565b9050847fffffffffffffffffffffffffffffffffffffffffffffffffffffffffffffffff8114156109315750805b85610971576040517f08c379a000000000000000000000000000000000000000000000000000000000815260040161096890612d6f565b60405180910390fd5b818611156109ab576040517f08c379a000000000000000000000000000000000000000000000000000000000815260040161096890612dcc565b6109b4836117eb565b6007546006546040517fd7020d0a00000000000000000000000000000000000000000000000000000000815273ffffffffffffffffffffffffffffffffffffffff9092169163d7020d0a91610a129133918a91879190600401612bb2565b600060405180830381600087803b158015610a2c57600080fd5b505af1158015610a40573d6000803e3d6000fd5b505050508473ffffffffffffffffffffffffffffffffffffffff163373ffffffffffffffffffffffffffffffffffffffff168873ffffffffffffffffffffffffffffffffffffffff167f3115d1449a7b732c986cba18244e897a450f61e1bb8d589cd2e69e6c8924f9f784604051610ab89190612f26565b60405180910390a4925050505b9392505050565b610ad585611837565b6040518060400160405280600281526020017f373800000000000000000000000000000000000000000000000000000000000081525090610b43576040517f08c379a00000000000000000000000000000000000000000000000000000000081526004016109689190612ca1565b5073ffffffffffffffffffffffffffffffffffffffff85166000908152600460205260409020610b76908585858561183d565b5050505050565b606481565b73ffffffffffffffffffffffffffffffffffffffff82166000908152600460205260409020610bb0816117eb565b3373ffffffffffffffffffffffffffffffffffffffff168373ffffffffffffffffffffffffffffffffffffffff167fea368a40e9570069bb8e6511d668293ad2e1f03b0d982431fd223de9f3b70ca684604051610c0d9190612f26565b60405180910390a3505050565b600f81565b5050505073ffffffffffffffffffffffffffffffffffffffff166000526004602052565b610c4b61262f565b60008a67ffffffffffffffff81118015610c6457600080fd5b50604051908082528060200260200182016040528015610c8e578160200160208202803683370190505b50905060008b67ffffffffffffffff81118015610caa57600080fd5b50604051908082528060200260200182016040528015610cd4578160200160208202803683370190505b506000604085015290505b60408301518c1115610db757600460008e8e8660400151818110610cff57fe5b9050602002016020810190610d14919061273a565b73ffffffffffffffffffffffffffffffffffffffff1673ffffffffffffffffffffffffffffffffffffffff16815260200190815260200160002060040160009054906101000a900473ffffffffffffffffffffffffffffffffffffffff1682846040015181518110610d8257fe5b73ffffffffffffffffffffffffffffffffffffffff909216602092830291909101909101526040830180516001019052610cdf565b600060408401525b60408301518c1115610f3c578c8c8460400151818110610ddb57fe5b9050602002016020810190610df0919061273a565b73ffffffffffffffffffffffffffffffffffffffff16606084015260408301518b908b90818110610e1d57fe5b905060200201358360a001818152505080836040015181518110610e3d57fe5b60200260200101518360c001818152505081836040015181518110610e5e57fe5b602090810291909101015173ffffffffffffffffffffffffffffffffffffffff16608084015260c083015160a0840151610e9791611aab565b8360e0018181525050826060015173ffffffffffffffffffffffffffffffffffffffff163373ffffffffffffffffffffffffffffffffffffffff168f73ffffffffffffffffffffffffffffffffffffffff167f631042c832b07452973831137f2d73e395028b44b250dedc5abb0ee766e168ac8660a001518760c0015189604051610f2493929190612f2f565b60405180910390a46040830180516001019052610dbf565b5050505050505050505050505050565b73ffffffffffffffffffffffffffffffffffffffff909116600090815260046020526040902055565b60065481565b600380547fffffffffffffffffffffffffffffffffffffffffffffffffffffffffffffff0016821515179081905560ff1615610fdf576040517f9e87fac88ff661f02d44f95383c817fece4bce600a3dab7a54406878b965e75290600090a1611009565b6040517fa45f47fdea8a1efdd9029a5691c7f759c32b7c698632b563573e155625d1693390600090a15b50565b60008060008060008091939550919395565b61102661261c565b5073ffffffffffffffffffffffffffffffffffffffff1660009081526004602090815260409182902082519182019092529054815290565b73ffffffffffffffffffffffffffffffffffffffff808316600090815260046020819052604090912090810154600780547fffffffffffffffffffffffff00000000000000000000000000000000000000001691909316179091556110c2816117eb565b8173ffffffffffffffffffffffffffffffffffffffff168373ffffffffffffffffffffffffffffffffffffffff167f9f439ae0c81e41a04d3fdfe07aed54e6a179fb0db15be7702eb66fa8ef6f530060405160405180910390a3505050565b73ffffffffffffffffffffffffffffffffffffffff8116600090815260046020526040812061062190611b1f565b6060600060015467ffffffffffffffff8111801561116c57600080fd5b50604051908082528060200260200182016040528015611196578160200160208202803683370190505b50905060005b60015481101561120957600081815260208190526040902054825173ffffffffffffffffffffffffffffffffffffffff909116908390839081106111dc57fe5b73ffffffffffffffffffffffffffffffffffffffff9092166020928302919091019091015260010161119c565b50905090565b73ffffffffffffffffffffffffffffffffffffffff868116600090815260046020818152604092839020909101548251808401909352600283527f36330000000000000000000000000000000000000000000000000000000000009183019190915290911633146112ad576040517f08c379a00000000000000000000000000000000000000000000000000000000081526004016109689190612ca1565b5073ffffffffffffffffffffffffffffffffffffffff86811660009081526004602052604090206007015474010000000000000000000000000000000000000000900460ff16908581169087161461143a576113098385611bb5565b61139c5773ffffffffffffffffffffffffffffffffffffffff86166000908152600560205260408120906113409082908490611c2c565b8673ffffffffffffffffffffffffffffffffffffffff168873ffffffffffffffffffffffffffffffffffffffff167f44c58d81365b66dd4b1a7f36c25aa97b8c71c361ee4937adc1a00000227db5dd60405160405180910390a3505b811580156113a957508315155b1561143a5773ffffffffffffffffffffffffffffffffffffffff851660009081526005602052604090206113df81836001611c2c565b8573ffffffffffffffffffffffffffffffffffffffff168873ffffffffffffffffffffffffffffffffffffffff167e058a56ea94653cdf4f152d227ace22d4c00ad99e2a43f58cb7d9e3feb295f260405160405180910390a3505b50505050505050565b60075473ffffffffffffffffffffffffffffffffffffffff1681565b73ffffffffffffffffffffffffffffffffffffffff84166000908152600460205260409020836114bb576040517f08c379a000000000000000000000000000000000000000000000000000000000815260040161096890612d12565b6004810154600780547fffffffffffffffffffffffff00000000000000000000000000000000000000001673ffffffffffffffffffffffffffffffffffffffff90921691909117905560018101546fffffffffffffffffffffffffffffffff16600655611527816117eb565b6007546115509073ffffffffffffffffffffffffffffffffffffffff8781169133911687611d42565b6007546006546040517f156e29f600000000000000000000000000000000000000000000000000000000815260009273ffffffffffffffffffffffffffffffffffffffff169163156e29f6916115ad9188918a9190600401612c0e565b602060405180830381600087803b1580156115c757600080fd5b505af11580156115db573d6000803e3d6000fd5b505050506040513d601f19601f820116820180604052508101906115ff9190612b16565b90506001811561160d575060005b8361ffff168573ffffffffffffffffffffffffffffffffffffffff168873ffffffffffffffffffffffffffffffffffffffff167fde6857219544bb5b7746f48ed30be6386fefc61b2f864cacf559893bf50fd951338a604051611671929190612be8565b60405180910390a450505050505050565b60085473ffffffffffffffffffffffffffffffffffffffff1681565b60015490565b6b033b2e3c9fd0803ce800000090565b600080821161172457604080517f08c379a000000000000000000000000000000000000000000000000000000000815260206004820152601a60248201527f536166654d6174683a206469766973696f6e206279207a65726f000000000000604482015290519081900360640190fd5b81838161172d57fe5b049392505050565b600381015460009064ffffffffff7001000000000000000000000000000000009091048116904216811415611796575050600181015470010000000000000000000000000000000090046fffffffffffffffffffffffffffffffff166105ee565b600183015460028401546000916117e3916fffffffffffffffffffffffffffffffff700100000000000000000000000000000000928390048116926117dd92041685611ddd565b90611dea565b949350505050565b6001810154600382015460009182916fffffffffffffffffffffffffffffffff90911690700100000000000000000000000000000000900464ffffffffff1661143a8584848185611ef1565b3b151590565b600485015460408051808201909152600281527f333200000000000000000000000000000000000000000000000000000000000060208201529073ffffffffffffffffffffffffffffffffffffffff16156118c5576040517f08c379a00000000000000000000000000000000000000000000000000000000081526004016109689190612ca1565b506118ce6116a4565b6001860180547fffffffffffffffffffffffffffffffff00000000000000000000000000000000166fffffffffffffffffffffffffffffffff929092169190911790556119196116a4565b6001860180546fffffffffffffffffffffffffffffffff92831670010000000000000000000000000000000002921691909117905560048501805473ffffffffffffffffffffffffffffffffffffffff8087167fffffffffffffffffffffffff00000000000000000000000000000000000000009283161790925560058088018054878516908416179055600688018054868516908416179055600788018054938516939092169290921790556000906119db906119d56116a4565b906116b4565b6002870180547fffffffffffffffffffffffffffffffff00000000000000000000000000000000166fffffffffffffffffffffffffffffffff929092169190911790555050506003830180547fffffffffffffffffffffff0000000000ffffffffffffffffffffffffffffffff167001000000000000000000000000000000004264ffffffffff1602179055505060070180547fffffffffffffffffffffff00ffffffffffffffffffffffffffffffffffffffff1674030000000000000000000000000000000000000000179055565b600082820183811015610ac557604080517f08c379a000000000000000000000000000000000000000000000000000000000815260206004820152601b60248201527f536166654d6174683a206164646974696f6e206f766572666c6f770000000000604482015290519081900360640190fd5b600381015460009064ffffffffff7001000000000000000000000000000000009091048116904216811415611b6c57505060018101546fffffffffffffffffffffffffffffffff166105ee565b6002830154600090611b90906fffffffffffffffffffffffffffffffff1683612144565b60018501549091506117e39082906fffffffffffffffffffffffffffffffff16611dea565b600082821115611c2657604080517f08c379a000000000000000000000000000000000000000000000000000000000815260206004820152601e60248201527f536166654d6174683a207375627472616374696f6e206f766572666c6f770000604482015290519081900360640190fd5b50900390565b60408051808201909152600281527f3737000000000000000000000000000000000000000000000000000000000000602082015260808310611d06576040517f08c379a00000000000000000000000000000000000000000000000000000000081526004018080602001828103825283818151815260200191508051906020019080838360005b83811015611ccb578181015183820152602001611cb3565b50505050905090810190601f168015611cf85780820380516001836020036101000a031916815260200191505b509250505060405180910390fd5b508160020260010181611d1a576000611d1d565b60015b60ff16901b826002026001016001901b19846000015416178360000181905550505050565b6040805173ffffffffffffffffffffffffffffffffffffffff80861660248301528416604482015260648082018490528251808303909101815260849091019091526020810180517bffffffffffffffffffffffffffffffffffffffffffffffffffffffff167f23b872dd00000000000000000000000000000000000000000000000000000000179052611dd7908590612182565b50505050565b6000610ac583834261225a565b6000821580611df7575081155b15611e0457506000610621565b817ffffffffffffffffffffffffffffffffffffffffffe6268e1b017bfe18bffffff81611e2d57fe5b048311156040518060400160405280600281526020017f343800000000000000000000000000000000000000000000000000000000000081525090611ecd576040517f08c379a0000000000000000000000000000000000000000000000000000000008152602060048201818152835160248401528351909283926044909101919085019080838360008315611ccb578181015183820152602001611cb3565b506b033b2e3c9fd0803ce80000008383026b019d971e4fe8401e740000000161172d565b600285015460009081906fffffffffffffffffffffffffffffffff16858582156120f1576000611f218488612144565b9050611f2d818a611dea565b60408051808201909152600281527f353100000000000000000000000000000000000000000000000000000000000060208201529093506fffffffffffffffffffffffffffffffff841115611faf576040517f08c379a00000000000000000000000000000000000000000000000000000000081526004016109689190612ca1565b5060018b0180547fffffffffffffffffffffffffffffffff00000000000000000000000000000000166fffffffffffffffffffffffffffffffff851617905589156120ef5760028b015460009061202c9070010000000000000000000000000000000090046fffffffffffffffffffffffffffffffff1689611ddd565b9050612038818a611dea565b60408051808201909152600281527f353200000000000000000000000000000000000000000000000000000000000060208201529093506fffffffffffffffffffffffffffffffff8411156120ba576040517f08c379a00000000000000000000000000000000000000000000000000000000081526004016109689190612ca1565b505060018b0180546fffffffffffffffffffffffffffffffff8085167001000000000000000000000000000000000291161790555b505b60039990990180547fffffffffffffffffffffff0000000000ffffffffffffffffffffffffffffffff167001000000000000000000000000000000004264ffffffffff1602179055989650505050505050565b6000806121584264ffffffffff8516611bb5565b90506117e36121656116a4565b6301e133806121748785612354565b8161217b57fe5b0490611aab565b60006121e4826040518060400160405280602081526020017f5361666545524332303a206c6f772d6c6576656c2063616c6c206661696c65648152508573ffffffffffffffffffffffffffffffffffffffff166123c79092919063ffffffff16565b8051909150156107bb5780806020019051602081101561220357600080fd5b50516107bb576040517f08c379a000000000000000000000000000000000000000000000000000000000815260040180806020018281038252602a815260200180612fa1602a913960400191505060405180910390fd5b60008061226e8364ffffffffff8616611bb5565b9050806122855761227d6116a4565b915050610ac5565b7fffffffffffffffffffffffffffffffffffffffffffffffffffffffffffffffff81016000600283116122b95760006122be565b600283035b90506301e13380870460006122d38280611dea565b905060006122e18284611dea565b9050600060026122fb846122f58a8a612354565b90612354565b8161230257fe5b04905060006006612319846122f589818d8d612354565b8161232057fe5b0490506123448161233e84816123368a8e612354565b61233e6116a4565b90611aab565b9c9b505050505050505050505050565b60008261236357506000610621565b8282028284828161237057fe5b0414610ac5576040517f08c379a0000000000000000000000000000000000000000000000000000000008152600401808060200182810382526021815260200180612f806021913960400191505060405180910390fd5b60606117e38484600085856123db85611837565b61244657604080517f08c379a000000000000000000000000000000000000000000000000000000000815260206004820152601d60248201527f416464726573733a2063616c6c20746f206e6f6e2d636f6e7472616374000000604482015290519081900360640190fd5b6000808673ffffffffffffffffffffffffffffffffffffffff1685876040518082805190602001908083835b602083106124af57805182527fffffffffffffffffffffffffffffffffffffffffffffffffffffffffffffffe09092019160209182019101612472565b6001836020036101000a03801982511681845116808217855250505050505090500191505060006040518083038185875af1925050503d8060008114612511576040519150601f19603f3d011682016040523d82523d6000602084013e612516565b606091505b5091509150612526828286612531565b979650505050505050565b60608315612540575081610ac5565b8251156125505782518084602001fd5b6040517f08c379a0000000000000000000000000000000000000000000000000000000008152602060048201818152845160248401528451859391928392604401919085019080838360008315611ccb578181015183820152602001611cb3565b6040518061018001604052806125c561261c565b815260006020820181905260408201819052606082018190526080820181905260a0820181905260c0820181905260e082018190526101008201819052610120820181905261014082018190526101609091015290565b6040518060200160405280600081525090565b6040805161012081018252600080825260208201819052918101829052606081018290526080810182905260a0810182905260c0810182905260e0810182905261010081019190915290565b803573ffffffffffffffffffffffffffffffffffffffff811681146105ee57600080fd5b60008083601f8401126126b0578182fd5b50813567ffffffffffffffff8111156126c7578182fd5b60208301915083602080830285010111156126e157600080fd5b9250929050565b60008083601f8401126126f9578182fd5b50813567ffffffffffffffff811115612710578182fd5b6020830191508360208285010111156126e157600080fd5b803561ffff811681146105ee57600080fd5b60006020828403121561274b578081fd5b610ac58261267b565b60008060408385031215612766578081fd5b61276f8361267b565b915061277d6020840161267b565b90509250929050565b600080600080600060a0868803121561279d578081fd5b6127a68661267b565b94506127b46020870161267b565b93506127c26040870161267b565b92506127d06060870161267b565b91506127de6080870161267b565b90509295509295909350565b600080600080600060a08688031215612801578081fd5b61280a8661267b565b94506128186020870161267b565b93506128266040870161267b565b925060608601359150608086013561283d81612f71565b809150509295509295909350565b60008060008060008060c08789031215612863578081fd5b61286c8761267b565b955061287a6020880161267b565b94506128886040880161267b565b9350606087013592506080870135915060a087013590509295509295509295565b600080600080600080600080600080600060e08c8e0312156128c9578485fd5b6128d28c61267b565b9a5067ffffffffffffffff8060208e013511156128ed578586fd5b6128fd8e60208f01358f0161269f565b909b50995060408d0135811015612912578586fd5b6129228e60408f01358f0161269f565b909950975060608d0135811015612937578586fd5b6129478e60608f01358f0161269f565b909750955061295860808e0161267b565b94508060a08e0135111561296a578384fd5b5061297b8d60a08e01358e016126e8565b909350915061298c60c08d01612728565b90509295989b509295989b9093969950565b600080604083850312156129b0578182fd5b6129b98361267b565b915060208301356129c981612f71565b809150509250929050565b600080604083850312156129e6578182fd5b6129ef8361267b565b946020939093013593505050565b600080600060608486031215612a11578283fd5b612a1a8461267b565b925060208401359150612a2f6040850161267b565b90509250925092565b60008060008060808587031215612a4d578182fd5b612a568561267b565b935060208501359250612a6b6040860161267b565b9150612a7960608601612728565b905092959194509250565b60008060008060808587031215612a99578182fd5b612aa28561267b565b93506020850135925060408501359150612a796060860161267b565b600080600080600060a08688031215612ad5578283fd5b612ade8661267b565b945060208601359350604086013592506127d060608701612728565b600060208284031215612b0b578081fd5b8135610ac581612f71565b600060208284031215612b27578081fd5b8151610ac581612f71565b600060208284031215612b43578081fd5b5051919050565b73ffffffffffffffffffffffffffffffffffffffff169052565b519052565b6fffffffffffffffffffffffffffffffff169052565b64ffffffffff169052565b60ff169052565b73ffffffffffffffffffffffffffffffffffffffff91909116815260200190565b73ffffffffffffffffffffffffffffffffffffffff94851681529290931660208301526040820152606081019190915260800190565b73ffffffffffffffffffffffffffffffffffffffff929092168252602082015260400190565b73ffffffffffffffffffffffffffffffffffffffff9390931683526020830191909152604082015260600190565b6020808252825182820181905260009190848201906040850190845b81811015612c8a57835173ffffffffffffffffffffffffffffffffffffffff1683529284019291840191600101612c58565b50909695505050505050565b901515815260200190565b6000602080835283518082850152825b81811015612ccd57858101830151858201604001528201612cb1565b81811115612cde5783604083870101525b50601f017fffffffffffffffffffffffffffffffffffffffffffffffffffffffffffffffe016929092016040019392505050565b60208082526024908201527f4572726f72202d206465706f736974207265717565737420666f72203020616d60408201527f6f756e7400000000000000000000000000000000000000000000000000000000606082015260800190565b60208082526025908201527f4572726f72202d207769746864726177207265717565737420666f722030206160408201527f6d6f756e74000000000000000000000000000000000000000000000000000000606082015260800190565b6020808252602a908201527f4572726f72202d2077697468647261772072657175657374206d6f726520746860408201527f616e2062616c616e636500000000000000000000000000000000000000000000606082015260800190565b9051815260200190565b600061018082019050612e47828451612b64565b6020830151612e596020840182612b69565b506040830151612e6c6040840182612b69565b506060830151612e7f6060840182612b69565b506080830151612e926080840182612b69565b5060a0830151612ea560a0840182612b69565b5060c0830151612eb860c0840182612b7f565b5060e0830151612ecb60e0840182612b4a565b5061010080840151612edf82850182612b4a565b505061012080840151612ef482850182612b4a565b505061014080840151612f0982850182612b4a565b505061016080840151612f1e82850182612b8a565b505092915050565b90815260200190565b928352602083019190915261ffff16604082015260600190565b958652602086019490945260408501929092526060840152608083015260a082015260c00190565b801515811461100957600080fdfe536166654d6174683a206d756c7469706c69636174696f6e206f766572666c6f775361666545524332303a204552433230206f7065726174696f6e20646964206e6f742073756363656564a2646970667358221220d8741b5d793e62bbc1620486df15918457b97742049f3a883e2a2f0c587369fc64736f6c63430007060033",
  "linkReferences": {},
  "deployedLinkReferences": {}
}