{
  "_format": "hh-sol-artifact-1",
  "contractName": "AavedaiAdapter",
  "sourceName": "contracts/AavedaiAdapter.sol",
  "abi": [
    {
      "inputs": [
        {
          "internalType": "address",
          "name": "underlyingAssetAddress_",
          "type": "address"
        },
        {
          "internalType": "address",
          "name": "programAddress_",
          "type": "address"
        },
        {
          "internalType": "address",
          "name": "farmingPoolAddress_",
          "type": "address"
        },
        {
          "internalType": "address",
          "name": "aTokenAddress_",
          "type": "address"
        },
        {
          "internalType": "uint16",
          "name": "referralCode_",
          "type": "uint16"
        }
      ],
      "stateMutability": "nonpayable",
      "type": "constructor"
    },
    {
      "anonymous": false,
      "inputs": [
        {
          "indexed": true,
          "internalType": "address",
          "name": "underlyingAssetAddress",
          "type": "address"
        },
        {
          "indexed": true,
          "internalType": "address",
          "name": "wrappedTokenAddress",
          "type": "address"
        },
        {
          "indexed": false,
          "internalType": "uint256",
          "name": "underlyingAssetAmount",
          "type": "uint256"
        },
        {
          "indexed": false,
          "internalType": "uint256",
          "name": "wrappedTokenQuantity",
          "type": "uint256"
        },
        {
          "indexed": false,
          "internalType": "address",
          "name": "operator",
          "type": "address"
        },
        {
          "indexed": false,
          "internalType": "uint256",
          "name": "timestamp",
          "type": "uint256"
        }
      ],
      "name": "DepositUnderlyingToken",
      "type": "event"
    },
    {
      "anonymous": false,
      "inputs": [
        {
          "indexed": true,
          "internalType": "address",
          "name": "underlyingAssetAddress",
          "type": "address"
        },
        {
          "indexed": true,
          "internalType": "address",
          "name": "wrappedTokenAddress",
          "type": "address"
        },
        {
          "indexed": false,
          "internalType": "uint256",
          "name": "maxWrappedTokenAmount",
          "type": "uint256"
        },
        {
          "indexed": false,
          "internalType": "uint256",
          "name": "actualWrappedTokenAmount",
          "type": "uint256"
        },
        {
          "indexed": false,
          "internalType": "uint256",
          "name": "underlyingAssetQuantity",
          "type": "uint256"
        },
        {
          "indexed": false,
          "internalType": "address",
          "name": "operator",
          "type": "address"
        },
        {
          "indexed": false,
          "internalType": "uint256",
          "name": "timestamp",
          "type": "uint256"
        }
      ],
      "name": "RedeemWrappedToken",
      "type": "event"
    },
    {
      "anonymous": false,
      "inputs": [
        {
          "indexed": false,
          "internalType": "address",
          "name": "thisaddress",
          "type": "address"
        },
        {
          "indexed": false,
          "internalType": "address",
          "name": "receiver",
          "type": "address"
        },
        {
          "indexed": false,
          "internalType": "address",
          "name": "assetAddress",
          "type": "address"
        },
        {
          "indexed": false,
          "internalType": "uint256",
          "name": "amount",
          "type": "uint256"
        },
        {
          "indexed": false,
          "internalType": "address",
          "name": "owner",
          "type": "address"
        },
        {
          "indexed": false,
          "internalType": "uint256",
          "name": "timestamp",
          "type": "uint256"
        }
      ],
      "name": "Sweep",
      "type": "event"
    },
    {
      "inputs": [],
      "name": "aTokenAddress",
      "outputs": [
        {
          "internalType": "address",
          "name": "",
          "type": "address"
        }
      ],
      "stateMutability": "view",
      "type": "function"
    },
    {
      "inputs": [
        {
          "internalType": "uint256",
          "name": "amount",
          "type": "uint256"
        }
      ],
      "name": "depositUnderlyingToken",
      "outputs": [
        {
          "internalType": "uint256",
          "name": "",
          "type": "uint256"
        }
      ],
      "stateMutability": "nonpayable",
      "type": "function"
    },
    {
      "inputs": [],
      "name": "farmingPoolAddress",
      "outputs": [
        {
          "internalType": "address",
          "name": "",
          "type": "address"
        }
      ],
      "stateMutability": "view",
      "type": "function"
    },
    {
      "inputs": [],
      "name": "getDataReserve",
      "outputs": [
        {
          "components": [
            {
              "components": [
                {
                  "internalType": "uint256",
                  "name": "data",
                  "type": "uint256"
                }
              ],
              "internalType": "struct DataTypes.ReserveConfigurationMap",
              "name": "configuration",
              "type": "tuple"
            },
            {
              "internalType": "uint128",
              "name": "liquidityIndex",
              "type": "uint128"
            },
            {
              "internalType": "uint128",
              "name": "variableBorrowIndex",
              "type": "uint128"
            },
            {
              "internalType": "uint128",
              "name": "currentLiquidityRate",
              "type": "uint128"
            },
            {
              "internalType": "uint128",
              "name": "currentVariableBorrowRate",
              "type": "uint128"
            },
            {
              "internalType": "uint128",
              "name": "currentStableBorrowRate",
              "type": "uint128"
            },
            {
              "internalType": "uint40",
              "name": "lastUpdateTimestamp",
              "type": "uint40"
            },
            {
              "internalType": "address",
              "name": "aTokenAddress",
              "type": "address"
            },
            {
              "internalType": "address",
              "name": "stableDebtTokenAddress",
              "type": "address"
            },
            {
              "internalType": "address",
              "name": "variableDebtTokenAddress",
              "type": "address"
            },
            {
              "internalType": "address",
              "name": "interestRateStrategyAddress",
              "type": "address"
            },
            {
              "internalType": "uint8",
              "name": "id",
              "type": "uint8"
            }
          ],
          "internalType": "struct DataTypes.ReserveData",
          "name": "",
          "type": "tuple"
        }
      ],
      "stateMutability": "view",
      "type": "function"
    },
    {
      "inputs": [
        {
          "internalType": "uint256",
          "name": "amount",
          "type": "uint256"
        }
      ],
      "name": "getRedeemableUnderlyingTokensFor",
      "outputs": [
        {
          "internalType": "uint256",
          "name": "",
          "type": "uint256"
        }
      ],
      "stateMutability": "view",
      "type": "function"
    },
    {
      "inputs": [],
      "name": "getTotalRedeemableUnderlyingTokens",
      "outputs": [
        {
          "internalType": "uint256",
          "name": "",
          "type": "uint256"
        }
      ],
      "stateMutability": "view",
      "type": "function"
    },
    {
      "inputs": [],
      "name": "getTotalWrappedToken",
      "outputs": [
        {
          "internalType": "uint256",
          "name": "",
          "type": "uint256"
        }
      ],
      "stateMutability": "view",
      "type": "function"
    },
    {
      "inputs": [],
      "name": "getWrappedTokenPriceInUnderlying",
      "outputs": [
        {
          "internalType": "uint256",
          "name": "",
          "type": "uint256"
        }
      ],
      "stateMutability": "view",
      "type": "function"
    },
    {
      "inputs": [],
      "name": "governanceAccount",
      "outputs": [
        {
          "internalType": "address",
          "name": "",
          "type": "address"
        }
      ],
      "stateMutability": "view",
      "type": "function"
    },
    {
      "inputs": [],
      "name": "programAddress",
      "outputs": [
        {
          "internalType": "address",
          "name": "",
          "type": "address"
        }
      ],
      "stateMutability": "view",
      "type": "function"
    },
    {
      "inputs": [
        {
          "internalType": "address",
          "name": "to",
          "type": "address"
        },
        {
          "internalType": "uint256",
          "name": "amount",
          "type": "uint256"
        }
      ],
      "name": "redeem",
      "outputs": [],
      "stateMutability": "nonpayable",
      "type": "function"
    },
    {
      "inputs": [
        {
          "internalType": "uint256",
          "name": "maxAmount",
          "type": "uint256"
        }
      ],
      "name": "redeemWrappedToken",
      "outputs": [
        {
          "internalType": "uint256",
          "name": "",
          "type": "uint256"
        },
        {
          "internalType": "uint256",
          "name": "",
          "type": "uint256"
        }
      ],
      "stateMutability": "nonpayable",
      "type": "function"
    },
    {
      "inputs": [],
      "name": "referralCode",
      "outputs": [
        {
          "internalType": "uint16",
          "name": "",
          "type": "uint16"
        }
      ],
      "stateMutability": "view",
      "type": "function"
    },
    {
      "inputs": [
        {
          "internalType": "address",
          "name": "newFarmingPoolAddress",
          "type": "address"
        }
      ],
      "name": "setFarmingPoolAddress",
      "outputs": [],
      "stateMutability": "nonpayable",
      "type": "function"
    },
    {
      "inputs": [
        {
          "internalType": "address",
          "name": "newGovernanceAccount",
          "type": "address"
        }
      ],
      "name": "setGovernanceAccount",
      "outputs": [],
      "stateMutability": "nonpayable",
      "type": "function"
    },
    {
      "inputs": [],
      "name": "underlyingAssetAddress",
      "outputs": [
        {
          "internalType": "address",
          "name": "",
          "type": "address"
        }
      ],
      "stateMutability": "view",
      "type": "function"
    }
  ],
  "bytecode": "0x60806040523480156200001157600080fd5b50604051620022c7380380620022c78339810160408190526200003491620001a8565b6001600160a01b038516620000665760405162461bcd60e51b81526004016200005d90620002da565b60405180910390fd5b6001600160a01b0384166200008f5760405162461bcd60e51b81526004016200005d9062000220565b6001600160a01b038316620000b85760405162461bcd60e51b81526004016200005d906200027d565b6001600160a01b038216620000e15760405162461bcd60e51b81526004016200005d906200027d565b6000805462010000600160b01b031916336201000002179055600180546001600160a01b03199081166001600160a01b0397881617918290556002805482169688169690961795869055600380548216958816959095179094556004805485169387169390931761ffff60a01b1916600160a01b61ffff93909316929092029190911790915560058054938516938316939093179092556006805492909316911617905562000337565b80516001600160a01b0381168114620001a357600080fd5b919050565b600080600080600060a08688031215620001c0578081fd5b620001cb866200018b565b9450620001db602087016200018b565b9350620001eb604087016200018b565b9250620001fb606087016200018b565b9150608086015161ffff8116811462000212578182fd5b809150509295509295909350565b60208082526033908201527f41617665646169416461707465723a206161766544616920616464726573732060408201527f697320746865207a65726f206164647265737300000000000000000000000000606082015260800190565b60208082526038908201527f41617665646169416461707465723a206661726d696e6720706f6f6c2061646460408201527f7265737320697320746865207a65726f20616464726573730000000000000000606082015260800190565b6020808252603c908201527f41617665646169416461707465723a20756e6465726c79696e6720617373657460408201527f206164647265737320697320746865207a65726f206164647265737300000000606082015260800190565b611f8080620003476000396000f3fe608060405234801561001057600080fd5b50600436106101005760003560e01c806389d1a0fc11610097578063d8b6d25211610066578063d8b6d252146101d1578063dcfc0ced146101e6578063f36773a2146101ee578063f5b65fea1461020157610100565b806389d1a0fc14610199578063acf32897146101a1578063d0d019b0146101b6578063d77f99e5146101be57610100565b8063369146dc116100d3578063369146dc1461016e5780634065bb65146101765780637780a3211461017e5780637eca52cc1461018657610100565b8063013af693146101055780630f321448146101235780631e9a69501461014457806327144c0514610159575b600080fd5b61010d610214565b60405161011a9190611dd9565b60405180910390f35b6101366101313660046119bb565b610223565b60405161011a929190611de2565b6101576101523660046118a0565b61056d565b005b610161610679565b60405161011a9190611a32565b61016161069b565b61010d6106b7565b61010d6106d3565b61010d6101943660046119bb565b6106dd565b610161610a60565b6101a9610a7c565b60405161011a9190611cd7565b610161610b33565b61010d6101cc3660046119bb565b610b4f565b6101d9610b62565b60405161011a9190611dca565b610161610b84565b6101576101fc366004611884565b610ba0565b61015761020f366004611884565b610c8d565b600061021e610d80565b905090565b600354600090819073ffffffffffffffffffffffffffffffffffffffff16338114610283576040517f08c379a000000000000000000000000000000000000000000000000000000000815260040161027a90611baf565b60405180910390fd5b836102ba576040517f08c379a000000000000000000000000000000000000000000000000000000000815260040161027a90611b41565b60006102e0670de0b6b3a76400006102da6102d3610d80565b8890610e59565b90610ed5565b600480546040517f70a0823100000000000000000000000000000000000000000000000000000000815292935060009273ffffffffffffffffffffffffffffffffffffffff909116916370a082319161033b91309101611a32565b60206040518083038186803b15801561035357600080fd5b505afa158015610367573d6000803e3d6000fd5b505050506040513d601f19601f8201168201806040525081019061038b91906119d3565b6005546001546040517f69328dec00000000000000000000000000000000000000000000000000000000815292935060009273ffffffffffffffffffffffffffffffffffffffff928316926369328dec926103ef9291169087903390600401611a7a565b602060405180830381600087803b15801561040957600080fd5b505af115801561041d573d6000803e3d6000fd5b505050506040513d601f19601f8201168201806040525081019061044191906119d3565b600480546040517f70a0823100000000000000000000000000000000000000000000000000000000815292935060009273ffffffffffffffffffffffffffffffffffffffff909116916370a082319161049c91309101611a32565b60206040518083038186803b1580156104b457600080fd5b505afa1580156104c8573d6000803e3d6000fd5b505050506040513d601f19601f820116820180604052508101906104ec91906119d3565b905060006104fa8483610f56565b60025460015460405192935073ffffffffffffffffffffffffffffffffffffffff918216929116907f3383d2b6e1bace7c8eadf20483e4c175b7352d50f6b638dcc8f531b2960a5d0f90610557908d908690899033904290611e21565b60405180910390a3965090945050505050915091565b6006546040517f70a0823100000000000000000000000000000000000000000000000000000000815260009173ffffffffffffffffffffffffffffffffffffffff16906370a08231906105c4903090600401611a32565b60206040518083038186803b1580156105dc57600080fd5b505afa1580156105f0573d6000803e3d6000fd5b505050506040513d601f19601f8201168201806040525081019061061491906119d3565b905081811015610650576040517f08c379a000000000000000000000000000000000000000000000000000000000815260040161027a90611b78565b6006546106749073ffffffffffffffffffffffffffffffffffffffff168484610fcd565b505050565b60005462010000900473ffffffffffffffffffffffffffffffffffffffff1681565b60035473ffffffffffffffffffffffffffffffffffffffff1681565b6000806106c261105a565b90506106cd81611102565b91505090565b600061021e61105a565b60035460009073ffffffffffffffffffffffffffffffffffffffff16338114610732576040517f08c379a000000000000000000000000000000000000000000000000000000000815260040161027a90611baf565b82610769576040517f08c379a000000000000000000000000000000000000000000000000000000000815260040161027a90611c43565b6006546040517fdd62ed3e00000000000000000000000000000000000000000000000000000000815260009173ffffffffffffffffffffffffffffffffffffffff169063dd62ed3e906107c29033903090600401611a53565b60206040518083038186803b1580156107da57600080fd5b505afa1580156107ee573d6000803e3d6000fd5b505050506040513d601f19601f8201168201806040525081019061081291906119d3565b90508381101561084e576040517f08c379a000000000000000000000000000000000000000000000000000000000815260040161027a90611c0c565b6006546108739073ffffffffffffffffffffffffffffffffffffffff1633308761112c565b60025460065461089d9173ffffffffffffffffffffffffffffffffffffffff9182169116866111c7565b600554600154600480546040517fe8eda9df00000000000000000000000000000000000000000000000000000000815273ffffffffffffffffffffffffffffffffffffffff9485169463e8eda9df9461091b949116928a9230927401000000000000000000000000000000000000000090920461ffff169101611aaa565b600060405180830381600087803b15801561093557600080fd5b505af1158015610949573d6000803e3d6000fd5b5050600480546040517f70a082310000000000000000000000000000000000000000000000000000000081526000945073ffffffffffffffffffffffffffffffffffffffff90911692506370a08231916109a591309101611a32565b60206040518083038186803b1580156109bd57600080fd5b505afa1580156109d1573d6000803e3d6000fd5b505050506040513d601f19601f820116820180604052508101906109f591906119d3565b60025460015460405192935073ffffffffffffffffffffffffffffffffffffffff918216929116907fd61709f01fb16ceeac3357602e902176bad36336140960f941bde527df1566f390610a50908990869033904290611df0565b60405180910390a3949350505050565b60015473ffffffffffffffffffffffffffffffffffffffff1681565b610a8461177a565b6005546001546040517f35ea6a7500000000000000000000000000000000000000000000000000000000815260009273ffffffffffffffffffffffffffffffffffffffff908116926335ea6a7592610ae29290911690600401611a32565b6101806040518083038186803b158015610afb57600080fd5b505afa158015610b0f573d6000803e3d6000fd5b505050506040513d601f19601f820116820180604052508101906106cd91906118cb565b60025473ffffffffffffffffffffffffffffffffffffffff1681565b6000610b5a82611102565b90505b919050565b60045474010000000000000000000000000000000000000000900461ffff1681565b60045473ffffffffffffffffffffffffffffffffffffffff1681565b60005462010000900473ffffffffffffffffffffffffffffffffffffffff16338114610bf8576040517f08c379a000000000000000000000000000000000000000000000000000000000815260040161027a90611baf565b73ffffffffffffffffffffffffffffffffffffffff8216610c45576040517f08c379a000000000000000000000000000000000000000000000000000000000815260040161027a90611c7a565b50600380547fffffffffffffffffffffffff00000000000000000000000000000000000000001673ffffffffffffffffffffffffffffffffffffffff92909216919091179055565b60005462010000900473ffffffffffffffffffffffffffffffffffffffff16338114610ce5576040517f08c379a000000000000000000000000000000000000000000000000000000000815260040161027a90611baf565b73ffffffffffffffffffffffffffffffffffffffff8216610d32576040517f08c379a000000000000000000000000000000000000000000000000000000000815260040161027a90611ae4565b506000805473ffffffffffffffffffffffffffffffffffffffff90921662010000027fffffffffffffffffffff0000000000000000000000000000000000000000ffff909216919091179055565b6005546001546040517f35ea6a75000000000000000000000000000000000000000000000000000000008152600092839273ffffffffffffffffffffffffffffffffffffffff918216926335ea6a7592610dde921690600401611a32565b6101806040518083038186803b158015610df757600080fd5b505afa158015610e0b573d6000803e3d6000fd5b505050506040513d601f19601f82011682018060405250810190610e2f91906118cb565b90506000610e5282602001516fffffffffffffffffffffffffffffffff16611355565b9250505090565b600082610e6857506000610ecf565b82820282848281610e7557fe5b0414610ecc576040517f08c379a0000000000000000000000000000000000000000000000000000000008152600401808060200182810382526021815260200180611eca6021913960400191505060405180910390fd5b90505b92915050565b6000808211610f4557604080517f08c379a000000000000000000000000000000000000000000000000000000000815260206004820152601a60248201527f536166654d6174683a206469766973696f6e206279207a65726f000000000000604482015290519081900360640190fd5b818381610f4e57fe5b049392505050565b600082821115610fc757604080517f08c379a000000000000000000000000000000000000000000000000000000000815260206004820152601e60248201527f536166654d6174683a207375627472616374696f6e206f766572666c6f770000604482015290519081900360640190fd5b50900390565b6040805173ffffffffffffffffffffffffffffffffffffffff8416602482015260448082018490528251808303909101815260649091019091526020810180517bffffffffffffffffffffffffffffffffffffffffffffffffffffffff167fa9059cbb0000000000000000000000000000000000000000000000000000000017905261067490849061144b565b600480546040517f1da24f3e00000000000000000000000000000000000000000000000000000000815260009273ffffffffffffffffffffffffffffffffffffffff90921691631da24f3e916110b291309101611a32565b60206040518083038186803b1580156110ca57600080fd5b505afa1580156110de573d6000803e3d6000fd5b505050506040513d601f19601f8201168201806040525081019061021e91906119d3565b60008061110d610d80565b9050611125670de0b6b3a76400006102da8584610e59565b9392505050565b6040805173ffffffffffffffffffffffffffffffffffffffff80861660248301528416604482015260648082018490528251808303909101815260849091019091526020810180517bffffffffffffffffffffffffffffffffffffffffffffffffffffffff167f23b872dd000000000000000000000000000000000000000000000000000000001790526111c190859061144b565b50505050565b8015806112735750604080517fdd62ed3e00000000000000000000000000000000000000000000000000000000815230600482015273ffffffffffffffffffffffffffffffffffffffff848116602483015291519185169163dd62ed3e91604480820192602092909190829003018186803b15801561124557600080fd5b505afa158015611259573d6000803e3d6000fd5b505050506040513d602081101561126f57600080fd5b5051155b6112c8576040517f08c379a0000000000000000000000000000000000000000000000000000000008152600401808060200182810382526036815260200180611f156036913960400191505060405180910390fd5b6040805173ffffffffffffffffffffffffffffffffffffffff8416602482015260448082018490528251808303909101815260649091019091526020810180517bffffffffffffffffffffffffffffffffffffffffffffffffffffffff167f095ea7b30000000000000000000000000000000000000000000000000000000017905261067490849061144b565b60408051808201909152600281527f34390000000000000000000000000000000000000000000000000000000000006020820152600090631dcd650090838201908282101561143c576040517f08c379a00000000000000000000000000000000000000000000000000000000081526004018080602001828103825283818151815260200191508051906020019080838360005b838110156114015781810151838201526020016113e9565b50505050905090810190601f16801561142e5780820380516001836020036101000a031916815260200191505b509250505060405180910390fd5b50633b9aca0090049392505050565b60006114ad826040518060400160405280602081526020017f5361666545524332303a206c6f772d6c6576656c2063616c6c206661696c65648152508573ffffffffffffffffffffffffffffffffffffffff166115239092919063ffffffff16565b805190915015610674578080602001905160208110156114cc57600080fd5b5051610674576040517f08c379a000000000000000000000000000000000000000000000000000000000815260040180806020018281038252602a815260200180611eeb602a913960400191505060405180910390fd5b6060611532848460008561153a565b949350505050565b606082471015611595576040517f08c379a0000000000000000000000000000000000000000000000000000000008152600401808060200182810382526026815260200180611ea46026913960400191505060405180910390fd5b61159e856116f4565b61160957604080517f08c379a000000000000000000000000000000000000000000000000000000000815260206004820152601d60248201527f416464726573733a2063616c6c20746f206e6f6e2d636f6e7472616374000000604482015290519081900360640190fd5b6000808673ffffffffffffffffffffffffffffffffffffffff1685876040518082805190602001908083835b6020831061167257805182527fffffffffffffffffffffffffffffffffffffffffffffffffffffffffffffffe09092019160209182019101611635565b6001836020036101000a03801982511681845116808217855250505050505090500191505060006040518083038185875af1925050503d80600081146116d4576040519150601f19603f3d011682016040523d82523d6000602084013e6116d9565b606091505b50915091506116e98282866116fa565b979650505050505050565b3b151590565b60608315611709575081611125565b8251156117195782518084602001fd5b6040517f08c379a00000000000000000000000000000000000000000000000000000000081526020600482018181528451602484015284518593919283926044019190850190808383600083156114015781810151838201526020016113e9565b60405180610180016040528061178e6117e5565b815260006020820181905260408201819052606082018190526080820181905260a0820181905260c0820181905260e082018190526101008201819052610120820181905261014082018190526101609091015290565b6040518060200160405280600081525090565b8051610b5d81611e7e565b600060208284031215611814578081fd5b6040516020810181811067ffffffffffffffff8211171561183157fe5b6040529151825250919050565b80516fffffffffffffffffffffffffffffffff81168114610b5d57600080fd5b805164ffffffffff81168114610b5d57600080fd5b805160ff81168114610b5d57600080fd5b600060208284031215611895578081fd5b8135610ecc81611e7e565b600080604083850312156118b2578081fd5b82356118bd81611e7e565b946020939093013593505050565b60006101808083850312156118de578182fd5b6118e781611e5a565b90506118f38484611803565b81526119016020840161183e565b60208201526119126040840161183e565b60408201526119236060840161183e565b60608201526119346080840161183e565b608082015261194560a0840161183e565b60a082015261195660c0840161185e565b60c082015261196760e084016117f8565b60e082015261010061197a8185016117f8565b9082015261012061198c8482016117f8565b9082015261014061199e8482016117f8565b908201526101606119b0848201611873565b908201529392505050565b6000602082840312156119cc578081fd5b5035919050565b6000602082840312156119e4578081fd5b5051919050565b73ffffffffffffffffffffffffffffffffffffffff169052565b519052565b6fffffffffffffffffffffffffffffffff169052565b64ffffffffff169052565b60ff169052565b73ffffffffffffffffffffffffffffffffffffffff91909116815260200190565b73ffffffffffffffffffffffffffffffffffffffff92831681529116602082015260400190565b73ffffffffffffffffffffffffffffffffffffffff93841681526020810192909252909116604082015260600190565b73ffffffffffffffffffffffffffffffffffffffff948516815260208101939093529216604082015261ffff909116606082015260800190565b6020808252603a908201527f41617665646169416461707465723a206e657720676f7665726e616e6365206160408201527f63636f756e7420697320746865207a65726f2061646472657373000000000000606082015260800190565b6020808252601e908201527f41617665646169416461707465723a2063616e27742072656465656d20300000604082015260600190565b6020808252601a908201527f6e6f7420656e6f75676820746f6b656e20746f2072656465656d000000000000604082015260600190565b60208082526025908201527f41617665646169416461707465723a2073656e646572206e6f7420617574686f60408201527f72697a6564000000000000000000000000000000000000000000000000000000606082015260800190565b60208082526019908201527f436865636b2074686520746f6b656e20616c6c6f77616e636500000000000000604082015260600190565b6020808252601b908201527f41617665646169416461707465723a2063616e27742061646420300000000000604082015260600190565b6020808252603c908201527f41617665646169416461707465723a206e6577206661726d696e6720706f6f6c60408201527f206164647265737320697320746865207a65726f206164647265737300000000606082015260800190565b600061018082019050611ceb828451611a05565b6020830151611cfd6020840182611a0a565b506040830151611d106040840182611a0a565b506060830151611d236060840182611a0a565b506080830151611d366080840182611a0a565b5060a0830151611d4960a0840182611a0a565b5060c0830151611d5c60c0840182611a20565b5060e0830151611d6f60e08401826119eb565b5061010080840151611d83828501826119eb565b505061012080840151611d98828501826119eb565b505061014080840151611dad828501826119eb565b505061016080840151611dc282850182611a2b565b505092915050565b61ffff91909116815260200190565b90815260200190565b918252602082015260400190565b938452602084019290925273ffffffffffffffffffffffffffffffffffffffff166040830152606082015260800190565b9485526020850193909352604084019190915273ffffffffffffffffffffffffffffffffffffffff166060830152608082015260a00190565b60405181810167ffffffffffffffff81118282101715611e7657fe5b604052919050565b73ffffffffffffffffffffffffffffffffffffffff81168114611ea057600080fd5b5056fe416464726573733a20696e73756666696369656e742062616c616e636520666f722063616c6c536166654d6174683a206d756c7469706c69636174696f6e206f766572666c6f775361666545524332303a204552433230206f7065726174696f6e20646964206e6f7420737563636565645361666545524332303a20617070726f76652066726f6d206e6f6e2d7a65726f20746f206e6f6e2d7a65726f20616c6c6f77616e6365a264697066735822122090793c1c91be8325d26669780d7056df2f04655133776650ec3c3d655057a50964736f6c63430007060033",
  "linkReferences": {},
  "deployedLinkReferences": {}
}