{
  "_format": "hh-sol-artifact-1",
  "contractName": "ATokenMock",
  "sourceName": "contracts/mocks/ATokenMock.sol",
  "abi": [
    {
      "inputs": [
        {
          "internalType": "string",
          "name": "name_",
          "type": "string"
        },
        {
          "internalType": "string",
          "name": "symbol_",
          "type": "string"
        },
        {
          "internalType": "uint8",
          "name": "decimals_",
          "type": "uint8"
        },
        {
          "internalType": "address",
          "name": "underlyingAsset_",
          "type": "address"
        }
      ],
      "stateMutability": "nonpayable",
      "type": "constructor"
    },
    {
      "anonymous": false,
      "inputs": [
        {
          "indexed": true,
          "internalType": "address",
          "name": "owner",
          "type": "address"
        },
        {
          "indexed": true,
          "internalType": "address",
          "name": "spender",
          "type": "address"
        },
        {
          "indexed": false,
          "internalType": "uint256",
          "name": "value",
          "type": "uint256"
        }
      ],
      "name": "Approval",
      "type": "event"
    },
    {
      "anonymous": false,
      "inputs": [
        {
          "indexed": true,
          "internalType": "address",
          "name": "from",
          "type": "address"
        },
        {
          "indexed": true,
          "internalType": "address",
          "name": "to",
          "type": "address"
        },
        {
          "indexed": false,
          "internalType": "uint256",
          "name": "value",
          "type": "uint256"
        },
        {
          "indexed": false,
          "internalType": "uint256",
          "name": "index",
          "type": "uint256"
        }
      ],
      "name": "BalanceTransfer",
      "type": "event"
    },
    {
      "anonymous": false,
      "inputs": [
        {
          "indexed": true,
          "internalType": "address",
          "name": "from",
          "type": "address"
        },
        {
          "indexed": true,
          "internalType": "address",
          "name": "target",
          "type": "address"
        },
        {
          "indexed": false,
          "internalType": "uint256",
          "name": "value",
          "type": "uint256"
        },
        {
          "indexed": false,
          "internalType": "uint256",
          "name": "index",
          "type": "uint256"
        }
      ],
      "name": "Burn",
      "type": "event"
    },
    {
      "anonymous": false,
      "inputs": [
        {
          "indexed": true,
          "internalType": "address",
          "name": "from",
          "type": "address"
        },
        {
          "indexed": false,
          "internalType": "uint256",
          "name": "value",
          "type": "uint256"
        },
        {
          "indexed": false,
          "internalType": "uint256",
          "name": "index",
          "type": "uint256"
        }
      ],
      "name": "Mint",
      "type": "event"
    },
    {
      "anonymous": false,
      "inputs": [
        {
          "indexed": true,
          "internalType": "address",
          "name": "from",
          "type": "address"
        },
        {
          "indexed": true,
          "internalType": "address",
          "name": "to",
          "type": "address"
        },
        {
          "indexed": false,
          "internalType": "uint256",
          "name": "value",
          "type": "uint256"
        }
      ],
      "name": "Transfer",
      "type": "event"
    },
    {
      "inputs": [],
      "name": "UNDERLYING_ASSET_ADDRESS",
      "outputs": [
        {
          "internalType": "address",
          "name": "",
          "type": "address"
        }
      ],
      "stateMutability": "view",
      "type": "function"
    },
    {
      "inputs": [],
      "name": "_decimals",
      "outputs": [
        {
          "internalType": "uint8",
          "name": "",
          "type": "uint8"
        }
      ],
      "stateMutability": "view",
      "type": "function"
    },
    {
      "inputs": [],
      "name": "_name",
      "outputs": [
        {
          "internalType": "string",
          "name": "",
          "type": "string"
        }
      ],
      "stateMutability": "view",
      "type": "function"
    },
    {
      "inputs": [],
      "name": "_symbol",
      "outputs": [
        {
          "internalType": "string",
          "name": "",
          "type": "string"
        }
      ],
      "stateMutability": "view",
      "type": "function"
    },
    {
      "inputs": [
        {
          "internalType": "address",
          "name": "owner",
          "type": "address"
        },
        {
          "internalType": "address",
          "name": "spender",
          "type": "address"
        }
      ],
      "name": "allowance",
      "outputs": [
        {
          "internalType": "uint256",
          "name": "",
          "type": "uint256"
        }
      ],
      "stateMutability": "view",
      "type": "function"
    },
    {
      "inputs": [
        {
          "internalType": "address",
          "name": "",
          "type": "address"
        },
        {
          "internalType": "address",
          "name": "",
          "type": "address"
        }
      ],
      "name": "allowed",
      "outputs": [
        {
          "internalType": "uint256",
          "name": "",
          "type": "uint256"
        }
      ],
      "stateMutability": "view",
      "type": "function"
    },
    {
      "inputs": [
        {
          "internalType": "address",
          "name": "spender",
          "type": "address"
        },
        {
          "internalType": "uint256",
          "name": "amount",
          "type": "uint256"
        }
      ],
      "name": "approve",
      "outputs": [
        {
          "internalType": "bool",
          "name": "",
          "type": "bool"
        }
      ],
      "stateMutability": "nonpayable",
      "type": "function"
    },
    {
      "inputs": [
        {
          "internalType": "address",
          "name": "user",
          "type": "address"
        }
      ],
      "name": "balanceOf",
      "outputs": [
        {
          "internalType": "uint256",
          "name": "",
          "type": "uint256"
        }
      ],
      "stateMutability": "view",
      "type": "function"
    },
    {
      "inputs": [
        {
          "internalType": "address",
          "name": "user",
          "type": "address"
        },
        {
          "internalType": "address",
          "name": "receiverOfUnderlying",
          "type": "address"
        },
        {
          "internalType": "uint256",
          "name": "amount",
          "type": "uint256"
        },
        {
          "internalType": "uint256",
          "name": "index",
          "type": "uint256"
        }
      ],
      "name": "burn",
      "outputs": [],
      "stateMutability": "nonpayable",
      "type": "function"
    },
    {
      "inputs": [],
      "name": "decimals",
      "outputs": [
        {
          "internalType": "uint8",
          "name": "",
          "type": "uint8"
        }
      ],
      "stateMutability": "view",
      "type": "function"
    },
    {
      "inputs": [],
      "name": "getIncentivesController",
      "outputs": [
        {
          "internalType": "contract IAaveIncentivesController",
          "name": "",
          "type": "address"
        }
      ],
      "stateMutability": "view",
      "type": "function"
    },
    {
      "inputs": [
        {
          "internalType": "address",
          "name": "user",
          "type": "address"
        }
      ],
      "name": "getScaledUserBalanceAndSupply",
      "outputs": [
        {
          "internalType": "uint256",
          "name": "",
          "type": "uint256"
        },
        {
          "internalType": "uint256",
          "name": "",
          "type": "uint256"
        }
      ],
      "stateMutability": "view",
      "type": "function"
    },
    {
      "inputs": [
        {
          "internalType": "address",
          "name": "user",
          "type": "address"
        },
        {
          "internalType": "uint256",
          "name": "amount",
          "type": "uint256"
        }
      ],
      "name": "handleRepayment",
      "outputs": [],
      "stateMutability": "nonpayable",
      "type": "function"
    },
    {
      "inputs": [],
      "name": "iLendingPoolAddress",
      "outputs": [
        {
          "internalType": "address",
          "name": "",
          "type": "address"
        }
      ],
      "stateMutability": "view",
      "type": "function"
    },
    {
      "inputs": [
        {
          "internalType": "address",
          "name": "user",
          "type": "address"
        },
        {
          "internalType": "uint256",
          "name": "amount",
          "type": "uint256"
        },
        {
          "internalType": "uint256",
          "name": "index",
          "type": "uint256"
        }
      ],
      "name": "mint",
      "outputs": [
        {
          "internalType": "bool",
          "name": "",
          "type": "bool"
        }
      ],
      "stateMutability": "nonpayable",
      "type": "function"
    },
    {
      "inputs": [
        {
          "internalType": "uint256",
          "name": "amount",
          "type": "uint256"
        },
        {
          "internalType": "uint256",
          "name": "index",
          "type": "uint256"
        }
      ],
      "name": "mintToTreasury",
      "outputs": [],
      "stateMutability": "nonpayable",
      "type": "function"
    },
    {
      "inputs": [],
      "name": "name",
      "outputs": [
        {
          "internalType": "string",
          "name": "",
          "type": "string"
        }
      ],
      "stateMutability": "view",
      "type": "function"
    },
    {
      "inputs": [
        {
          "internalType": "address",
          "name": "user",
          "type": "address"
        }
      ],
      "name": "scaledBalanceOf",
      "outputs": [
        {
          "internalType": "uint256",
          "name": "",
          "type": "uint256"
        }
      ],
      "stateMutability": "view",
      "type": "function"
    },
    {
      "inputs": [],
      "name": "scaledTotalSupply",
      "outputs": [
        {
          "internalType": "uint256",
          "name": "",
          "type": "uint256"
        }
      ],
      "stateMutability": "view",
      "type": "function"
    },
    {
      "inputs": [
        {
          "internalType": "address",
          "name": "iLendingPool",
          "type": "address"
        }
      ],
      "name": "setLendingPoolAddress",
      "outputs": [],
      "stateMutability": "nonpayable",
      "type": "function"
    },
    {
      "inputs": [],
      "name": "symbol",
      "outputs": [
        {
          "internalType": "string",
          "name": "",
          "type": "string"
        }
      ],
      "stateMutability": "view",
      "type": "function"
    },
    {
      "inputs": [],
      "name": "totalSupply",
      "outputs": [
        {
          "internalType": "uint256",
          "name": "",
          "type": "uint256"
        }
      ],
      "stateMutability": "view",
      "type": "function"
    },
    {
      "inputs": [
        {
          "internalType": "address",
          "name": "recipient",
          "type": "address"
        },
        {
          "internalType": "uint256",
          "name": "amount",
          "type": "uint256"
        }
      ],
      "name": "transfer",
      "outputs": [
        {
          "internalType": "bool",
          "name": "",
          "type": "bool"
        }
      ],
      "stateMutability": "nonpayable",
      "type": "function"
    },
    {
      "inputs": [
        {
          "internalType": "address",
          "name": "sender",
          "type": "address"
        },
        {
          "internalType": "address",
          "name": "recipient",
          "type": "address"
        },
        {
          "internalType": "uint256",
          "name": "amount",
          "type": "uint256"
        }
      ],
      "name": "transferFrom",
      "outputs": [
        {
          "internalType": "bool",
          "name": "",
          "type": "bool"
        }
      ],
      "stateMutability": "nonpayable",
      "type": "function"
    },
    {
      "inputs": [
        {
          "internalType": "address",
          "name": "from",
          "type": "address"
        },
        {
          "internalType": "address",
          "name": "to",
          "type": "address"
        },
        {
          "internalType": "uint256",
          "name": "value",
          "type": "uint256"
        }
      ],
      "name": "transferOnLiquidation",
      "outputs": [],
      "stateMutability": "nonpayable",
      "type": "function"
    },
    {
      "inputs": [
        {
          "internalType": "address",
          "name": "target",
          "type": "address"
        },
        {
          "internalType": "uint256",
          "name": "amount",
          "type": "uint256"
        }
      ],
      "name": "transferUnderlyingTo",
      "outputs": [
        {
          "internalType": "uint256",
          "name": "",
          "type": "uint256"
        }
      ],
      "stateMutability": "nonpayable",
      "type": "function"
    }
  ],
  "bytecode": "0x60806040523480156200001157600080fd5b5060405162002a6538038062002a65833981810160405260808110156200003757600080fd5b81019080805160405193929190846401000000008211156200005857600080fd5b9083019060208201858111156200006e57600080fd5b82516401000000008111828201881017156200008957600080fd5b82525081516020918201929091019080838360005b83811015620000b85781810151838201526020016200009e565b50505050905090810190601f168015620000e65780820380516001836020036101000a031916815260200191505b50604052602001805160405193929190846401000000008211156200010a57600080fd5b9083019060208201858111156200012057600080fd5b82516401000000008111828201881017156200013b57600080fd5b82525081516020918201929091019080838360005b838110156200016a57818101518382015260200162000150565b50505050905090810190601f168015620001985780820380516001836020036101000a031916815260200191505b506040908152602082810151929091015186519294509250620001c19160099187019062000258565b508251620001d790600a90602086019062000258565b50600b805460ff191660ff84161790556001600160a01b0381166200022e5760405162461bcd60e51b815260040180806020018281038252603781526020018062002a2e6037913960400191505060405180910390fd5b600580546001600160a01b0319166001600160a01b03929092169190911790555062000304915050565b828054600181600116156101000203166002900490600052602060002090601f016020900481019282620002905760008555620002db565b82601f10620002ab57805160ff1916838001178555620002db565b82800160010185558215620002db579182015b82811115620002db578251825591602001919060010190620002be565b50620002e9929150620002ed565b5090565b5b80821115620002e95760008155600101620002ee565b61271a80620003146000396000f3fe608060405234801561001057600080fd5b50600436106101ae5760003560e01c806375d26413116100ee578063b16a19de11610097578063d7020d0a11610071578063d7020d0a1461052a578063dd62ed3e14610573578063ed3f827a146105ae578063f866c319146105e1576101ae565b8063b16a19de14610512578063b1bf962d1461051a578063d28d885214610522576101ae565b806395d89b41116100c857806395d89b41146104c9578063a9059cbb146104d1578063b09f12661461050a576101ae565b806375d26413146104635780637df5bd3b1461046b57806388dd91a114610490576101ae565b806323b872dd1161015b5780634b4dee3d116101355780634b4dee3d146103be5780634efecaa5146103ef5780635c6581651461042857806370a0823114610322576101ae565b806323b872dd14610355578063313ce5671461039857806332424aa3146103b6576101ae565b8063156e29f61161018c578063156e29f6146102c957806318160ddd146103085780631da24f3e14610322576101ae565b806306fdde03146101b3578063095ea7b3146102305780630afbcdc91461027d575b600080fd5b6101bb610624565b6040805160208082528351818301528351919283929083019185019080838360005b838110156101f55781810151838201526020016101dd565b50505050905090810190601f1680156102225780820380516001836020036101000a031916815260200191505b509250505060405180910390f35b6102696004803603604081101561024657600080fd5b5073ffffffffffffffffffffffffffffffffffffffff81351690602001356106d9565b604080519115158252519081900360200190f35b6102b06004803603602081101561029357600080fd5b503573ffffffffffffffffffffffffffffffffffffffff166106f7565b6040805192835260208301919091528051918290030190f35b610269600480360360608110156102df57600080fd5b5073ffffffffffffffffffffffffffffffffffffffff8135169060208101359060400135610714565b610310610974565b60408051918252519081900360200190f35b6103106004803603602081101561033857600080fd5b503573ffffffffffffffffffffffffffffffffffffffff16610995565b6102696004803603606081101561036b57600080fd5b5073ffffffffffffffffffffffffffffffffffffffff8135811691602081013590911690604001356109a0565b6103a0610aa6565b6040805160ff9092168252519081900360200190f35b6103a0610aaf565b6103c6610ab8565b6040805173ffffffffffffffffffffffffffffffffffffffff9092168252519081900360200190f35b6103106004803603604081101561040557600080fd5b5073ffffffffffffffffffffffffffffffffffffffff8135169060200135610ad4565b6103106004803603604081101561043e57600080fd5b5073ffffffffffffffffffffffffffffffffffffffff81358116916020013516610bb6565b6103c6610bd3565b61048e6004803603604081101561048157600080fd5b5080359060200135610bdd565b005b61048e600480360360408110156104a657600080fd5b5073ffffffffffffffffffffffffffffffffffffffff8135169060200135610d6d565b6101bb610e27565b610269600480360360408110156104e757600080fd5b5073ffffffffffffffffffffffffffffffffffffffff8135169060200135610ea6565b6101bb610f2f565b6103c6610fdb565b610310610ff7565b6101bb611001565b61048e6004803603608081101561054057600080fd5b5073ffffffffffffffffffffffffffffffffffffffff81358116916020810135909116906040810135906060013561107a565b6103106004803603604081101561058957600080fd5b5073ffffffffffffffffffffffffffffffffffffffff813581169160200135166112ca565b61048e600480360360208110156105c457600080fd5b503573ffffffffffffffffffffffffffffffffffffffff16611302565b61048e600480360360608110156105f757600080fd5b5073ffffffffffffffffffffffffffffffffffffffff8135811691602081013590911690604001356113b5565b60098054604080516020601f60027fffffffffffffffffffffffffffffffffffffffffffffffffffffffffffffffff6101006001881615020190951694909404938401819004810282018101909252828152606093909290918301828280156106ce5780601f106106a3576101008083540402835291602001916106ce565b820191906000526020600020905b8154815290600101906020018083116106b157829003601f168201915b505050505090505b90565b60006106ed6106e66114e2565b84846114e6565b5060015b92915050565b6000806107038361162d565b61070b611655565b91509150915091565b60075460408051808201909152600281527f3239000000000000000000000000000000000000000000000000000000000000602082015260009173ffffffffffffffffffffffffffffffffffffffff163314610808576040517f08c379a00000000000000000000000000000000000000000000000000000000081526004018080602001828103825283818151815260200191508051906020019080838360005b838110156107cd5781810151838201526020016107b5565b50505050905090810190601f1680156107fa5780820380516001836020036101000a031916815260200191505b509250505060405180910390fd5b5060006108148561162d565b90506000610822858561165b565b60408051808201909152600281527f35360000000000000000000000000000000000000000000000000000000000006020820152909150816108bf576040517f08c379a00000000000000000000000000000000000000000000000000000000081526020600482018181528351602484015283519092839260449091019190850190808383600083156107cd5781810151838201526020016107b5565b506108ca86826117cc565b60408051868152905173ffffffffffffffffffffffffffffffffffffffff8816916000917fddf252ad1be2c89b69c2b068fc378daa952ba7f163c4a11628f55a4df523b3ef9181900360200190a36040805186815260208101869052815173ffffffffffffffffffffffffffffffffffffffff8916927f4c209b5fc8ad50758f13e2e1088ba56a560dff690a1c6fef26394f4c03821c4f928290030190a2501590505b9392505050565b60008061097f611655565b9050806109905760009150506106d6565b905090565b60006106f18261162d565b60006109ad8484846118c9565b610a37846109b96114e2565b610a32856040518060600160405280602881526020016125f56028913973ffffffffffffffffffffffffffffffffffffffff8a16600090815260016020526040812090610a046114e2565b73ffffffffffffffffffffffffffffffffffffffff16815260208101919091526040016000205491906118d6565b6114e6565b8273ffffffffffffffffffffffffffffffffffffffff168473ffffffffffffffffffffffffffffffffffffffff167fddf252ad1be2c89b69c2b068fc378daa952ba7f163c4a11628f55a4df523b3ef846040518082815260200191505060405180910390a35060019392505050565b600b5460ff1690565b600b5460ff1681565b60075473ffffffffffffffffffffffffffffffffffffffff1681565b60075460408051808201909152600281527f3239000000000000000000000000000000000000000000000000000000000000602082015260009173ffffffffffffffffffffffffffffffffffffffff163314610b8b576040517f08c379a00000000000000000000000000000000000000000000000000000000081526020600482018181528351602484015283519092839260449091019190850190808383600083156107cd5781810151838201526020016107b5565b50600554610bb09073ffffffffffffffffffffffffffffffffffffffff16848461194a565b50919050565b600860209081526000928352604080842090915290825290205481565b60006109906119d7565b60075460408051808201909152600281527f323900000000000000000000000000000000000000000000000000000000000060208201529073ffffffffffffffffffffffffffffffffffffffff163314610c92576040517f08c379a00000000000000000000000000000000000000000000000000000000081526020600482018181528351602484015283519092839260449091019190850190808383600083156107cd5781810151838201526020016107b5565b5081610c9d57610d69565b60045473ffffffffffffffffffffffffffffffffffffffff16610cc981610cc4858561165b565b6117cc565b60408051848152905173ffffffffffffffffffffffffffffffffffffffff8316916000917fddf252ad1be2c89b69c2b068fc378daa952ba7f163c4a11628f55a4df523b3ef9181900360200190a36040805184815260208101849052815173ffffffffffffffffffffffffffffffffffffffff8416927f4c209b5fc8ad50758f13e2e1088ba56a560dff690a1c6fef26394f4c03821c4f928290030190a2505b5050565b60075460408051808201909152600281527f323900000000000000000000000000000000000000000000000000000000000060208201529073ffffffffffffffffffffffffffffffffffffffff163314610e22576040517f08c379a00000000000000000000000000000000000000000000000000000000081526020600482018181528351602484015283519092839260449091019190850190808383600083156107cd5781810151838201526020016107b5565b505050565b600a8054604080516020601f60027fffffffffffffffffffffffffffffffffffffffffffffffffffffffffffffffff6101006001881615020190951694909404938401819004810282018101909252828152606093909290918301828280156106ce5780601f106106a3576101008083540402835291602001916106ce565b6000610eba610eb36114e2565b84846118c9565b8273ffffffffffffffffffffffffffffffffffffffff16610ed96114e2565b73ffffffffffffffffffffffffffffffffffffffff167fddf252ad1be2c89b69c2b068fc378daa952ba7f163c4a11628f55a4df523b3ef846040518082815260200191505060405180910390a350600192915050565b600a805460408051602060026001851615610100027fffffffffffffffffffffffffffffffffffffffffffffffffffffffffffffffff0190941693909304601f81018490048402820184019092528181529291830182828015610fd35780601f10610fa857610100808354040283529160200191610fd3565b820191906000526020600020905b815481529060010190602001808311610fb657829003601f168201915b505050505081565b60055473ffffffffffffffffffffffffffffffffffffffff1690565b6000610990611655565b6009805460408051602060026001851615610100027fffffffffffffffffffffffffffffffffffffffffffffffffffffffffffffffff0190941693909304601f81018490048402820184019092528181529291830182828015610fd35780601f10610fa857610100808354040283529160200191610fd3565b60075460408051808201909152600281527f323900000000000000000000000000000000000000000000000000000000000060208201529073ffffffffffffffffffffffffffffffffffffffff16331461112f576040517f08c379a00000000000000000000000000000000000000000000000000000000081526020600482018181528351602484015283519092839260449091019190850190808383600083156107cd5781810151838201526020016107b5565b50600061113c838361165b565b60408051808201909152600281527f35380000000000000000000000000000000000000000000000000000000000006020820152909150816111d9576040517f08c379a00000000000000000000000000000000000000000000000000000000081526020600482018181528351602484015283519092839260449091019190850190808383600083156107cd5781810151838201526020016107b5565b506111e485826119f3565b6005546112089073ffffffffffffffffffffffffffffffffffffffff16858561194a565b60408051848152905160009173ffffffffffffffffffffffffffffffffffffffff8816917fddf252ad1be2c89b69c2b068fc378daa952ba7f163c4a11628f55a4df523b3ef9181900360200190a38373ffffffffffffffffffffffffffffffffffffffff168573ffffffffffffffffffffffffffffffffffffffff167f5d624aa9c148153ab3446c1b154f660ee7701e549fe9b62dab7171b1c80e6fa28585604051808381526020018281526020019250505060405180910390a35050505050565b73ffffffffffffffffffffffffffffffffffffffff918216600090815260016020908152604080832093909416825291909152205490565b73ffffffffffffffffffffffffffffffffffffffff811661136e576040517f08c379a00000000000000000000000000000000000000000000000000000000081526004018080602001828103825260348152602001806126876034913960400191505060405180910390fd5b600780547fffffffffffffffffffffffff00000000000000000000000000000000000000001673ffffffffffffffffffffffffffffffffffffffff92909216919091179055565b60075460408051808201909152600281527f323900000000000000000000000000000000000000000000000000000000000060208201529073ffffffffffffffffffffffffffffffffffffffff16331461146a576040517f08c379a00000000000000000000000000000000000000000000000000000000081526020600482018181528351602484015283519092839260449091019190850190808383600083156107cd5781810151838201526020016107b5565b506114788383836000611ac9565b8173ffffffffffffffffffffffffffffffffffffffff168373ffffffffffffffffffffffffffffffffffffffff167fddf252ad1be2c89b69c2b068fc378daa952ba7f163c4a11628f55a4df523b3ef836040518082815260200191505060405180910390a3505050565b3390565b73ffffffffffffffffffffffffffffffffffffffff8316611552576040517f08c379a00000000000000000000000000000000000000000000000000000000081526004018080602001828103825260248152602001806126636024913960400191505060405180910390fd5b73ffffffffffffffffffffffffffffffffffffffff82166115be576040517f08c379a00000000000000000000000000000000000000000000000000000000081526004018080602001828103825260228152602001806125876022913960400191505060405180910390fd5b73ffffffffffffffffffffffffffffffffffffffff808416600081815260016020908152604080832094871680845294825291829020859055815185815291517f8c5be1e5ebec7d5bd14f71427d1e84f3dd0314c0f7b2291e5b200ac8c7c3b9259281900390910190a3505050565b73ffffffffffffffffffffffffffffffffffffffff1660009081526020819052604090205490565b60025490565b60408051808201909152600281527f35300000000000000000000000000000000000000000000000000000000000006020820152600090826116f8576040517f08c379a00000000000000000000000000000000000000000000000000000000081526020600482018181528351602484015283519092839260449091019190850190808383600083156107cd5781810151838201526020016107b5565b506040805180820190915260028082527f343800000000000000000000000000000000000000000000000000000000000060208301528304906b033b2e3c9fd0803ce80000008219048511156117a9576040517f08c379a00000000000000000000000000000000000000000000000000000000081526020600482018181528351602484015283519092839260449091019190850190808383600083156107cd5781810151838201526020016107b5565b5082816b033b2e3c9fd0803ce8000000860201816117c357fe5b04949350505050565b73ffffffffffffffffffffffffffffffffffffffff821661184e57604080517f08c379a000000000000000000000000000000000000000000000000000000000815260206004820152601f60248201527f45524332303a206d696e7420746f20746865207a65726f206164647265737300604482015290519081900360640190fd5b61185a60008383610e22565b6002546118678183611cde565b60025573ffffffffffffffffffffffffffffffffffffffff831660009081526020819052604090205461189a8184611cde565b73ffffffffffffffffffffffffffffffffffffffff909416600090815260208190526040902093909355505050565b610e228383836001611ac9565b60008184841115611942576040517f08c379a00000000000000000000000000000000000000000000000000000000081526020600482018181528351602484015283519092839260449091019190850190808383600083156107cd5781810151838201526020016107b5565b505050900390565b6040805173ffffffffffffffffffffffffffffffffffffffff8416602482015260448082018490528251808303909101815260649091019091526020810180517bffffffffffffffffffffffffffffffffffffffffffffffffffffffff167fa9059cbb00000000000000000000000000000000000000000000000000000000179052610e22908490611d52565b60065473ffffffffffffffffffffffffffffffffffffffff1690565b73ffffffffffffffffffffffffffffffffffffffff8216611a5f576040517f08c379a000000000000000000000000000000000000000000000000000000000815260040180806020018281038252602181526020018061261d6021913960400191505060405180910390fd5b611a6b82600083610e22565b600254611a788183611e2a565b60025573ffffffffffffffffffffffffffffffffffffffff831660009081526020818152604091829020548251606081019093526022808452909261189a92869290612565908301398391906118d6565b600554600354604080517fd15e005300000000000000000000000000000000000000000000000000000000815273ffffffffffffffffffffffffffffffffffffffff938416600482018190529151919390921691600091839163d15e0053916024808301926020929190829003018186803b158015611b4757600080fd5b505afa158015611b5b573d6000803e3d6000fd5b505050506040513d6020811015611b7157600080fd5b505190506000611b8a82611b848a61162d565b90611ea1565b90506000611b9b83611b848a61162d565b9050611bb18989611bac8a8761165b565b611fa7565b8515611c6657604080517fd5ed393300000000000000000000000000000000000000000000000000000000815273ffffffffffffffffffffffffffffffffffffffff87811660048301528b811660248301528a81166044830152606482018a90526084820185905260a4820184905291519186169163d5ed39339160c48082019260009290919082900301818387803b158015611c4d57600080fd5b505af1158015611c61573d6000803e3d6000fd5b505050505b8773ffffffffffffffffffffffffffffffffffffffff168973ffffffffffffffffffffffffffffffffffffffff167f4beccb90f994c31aced7a23b5611020728a23d8ec5cddd1a3e9d97b96fda86668986604051808381526020018281526020019250505060405180910390a3505050505050505050565b60008282018381101561096d57604080517f08c379a000000000000000000000000000000000000000000000000000000000815260206004820152601b60248201527f536166654d6174683a206164646974696f6e206f766572666c6f770000000000604482015290519081900360640190fd5b6000611db4826040518060400160405280602081526020017f5361666545524332303a206c6f772d6c6576656c2063616c6c206661696c65648152508573ffffffffffffffffffffffffffffffffffffffff166122ea9092919063ffffffff16565b805190915015610e2257808060200190516020811015611dd357600080fd5b5051610e22576040517f08c379a000000000000000000000000000000000000000000000000000000000815260040180806020018281038252602a8152602001806126bb602a913960400191505060405180910390fd5b600082821115611e9b57604080517f08c379a000000000000000000000000000000000000000000000000000000000815260206004820152601e60248201527f536166654d6174683a207375627472616374696f6e206f766572666c6f770000604482015290519081900360640190fd5b50900390565b6000821580611eae575081155b15611ebb575060006106f1565b817ffffffffffffffffffffffffffffffffffffffffffe6268e1b017bfe18bffffff81611ee457fe5b048311156040518060400160405280600281526020017f343800000000000000000000000000000000000000000000000000000000000081525090611f84576040517f08c379a00000000000000000000000000000000000000000000000000000000081526020600482018181528351602484015283519092839260449091019190850190808383600083156107cd5781810151838201526020016107b5565b50506b033b2e3c9fd0803ce800000091026b019d971e4fe8401e74000000010490565b73ffffffffffffffffffffffffffffffffffffffff8316612013576040517f08c379a000000000000000000000000000000000000000000000000000000000815260040180806020018281038252602581526020018061263e6025913960400191505060405180910390fd5b73ffffffffffffffffffffffffffffffffffffffff821661207f576040517f08c379a00000000000000000000000000000000000000000000000000000000081526004018080602001828103825260238152602001806125426023913960400191505060405180910390fd5b61208a838383610e22565b60008060008573ffffffffffffffffffffffffffffffffffffffff1673ffffffffffffffffffffffffffffffffffffffff1681526020019081526020016000205490506120f2826040518060600160405280602681526020016125a9602691398391906118d6565b73ffffffffffffffffffffffffffffffffffffffff808616600090815260208190526040808220939093559085168152205461212e8184611cde565b73ffffffffffffffffffffffffffffffffffffffff851660009081526020819052604081209190915561215f6119d7565b73ffffffffffffffffffffffffffffffffffffffff16146122e3576002546121856119d7565b73ffffffffffffffffffffffffffffffffffffffff166331873e2e8783866040518463ffffffff1660e01b8152600401808473ffffffffffffffffffffffffffffffffffffffff1681526020018381526020018281526020019350505050600060405180830381600087803b1580156121fd57600080fd5b505af1158015612211573d6000803e3d6000fd5b505050508473ffffffffffffffffffffffffffffffffffffffff168673ffffffffffffffffffffffffffffffffffffffff16146122e1576122506119d7565b73ffffffffffffffffffffffffffffffffffffffff166331873e2e8683856040518463ffffffff1660e01b8152600401808473ffffffffffffffffffffffffffffffffffffffff1681526020018381526020018281526020019350505050600060405180830381600087803b1580156122c857600080fd5b505af11580156122dc573d6000803e3d6000fd5b505050505b505b5050505050565b60606122f98484600085612301565b949350505050565b60608247101561235c576040517f08c379a00000000000000000000000000000000000000000000000000000000081526004018080602001828103825260268152602001806125cf6026913960400191505060405180910390fd5b612365856124bb565b6123d057604080517f08c379a000000000000000000000000000000000000000000000000000000000815260206004820152601d60248201527f416464726573733a2063616c6c20746f206e6f6e2d636f6e7472616374000000604482015290519081900360640190fd5b6000808673ffffffffffffffffffffffffffffffffffffffff1685876040518082805190602001908083835b6020831061243957805182527fffffffffffffffffffffffffffffffffffffffffffffffffffffffffffffffe090920191602091820191016123fc565b6001836020036101000a03801982511681845116808217855250505050505090500191505060006040518083038185875af1925050503d806000811461249b576040519150601f19603f3d011682016040523d82523d6000602084013e6124a0565b606091505b50915091506124b08282866124c1565b979650505050505050565b3b151590565b606083156124d057508161096d565b8251156124e05782518084602001fd5b6040517f08c379a00000000000000000000000000000000000000000000000000000000081526020600482018181528451602484015284518593919283926044019190850190808383600083156107cd5781810151838201526020016107b556fe45524332303a207472616e7366657220746f20746865207a65726f206164647265737345524332303a206275726e20616d6f756e7420657863656564732062616c616e636545524332303a20617070726f766520746f20746865207a65726f206164647265737345524332303a207472616e7366657220616d6f756e7420657863656564732062616c616e6365416464726573733a20696e73756666696369656e742062616c616e636520666f722063616c6c45524332303a207472616e7366657220616d6f756e74206578636565647320616c6c6f77616e636545524332303a206275726e2066726f6d20746865207a65726f206164647265737345524332303a207472616e736665722066726f6d20746865207a65726f206164647265737345524332303a20617070726f76652066726f6d20746865207a65726f206164647265737341546f6b656e4d6f636b3a20694c656e64696e67506f6f6c206164647265737320697320746865207a65726f20616464726573735361666545524332303a204552433230206f7065726174696f6e20646964206e6f742073756363656564a264697066735822122050a175262c82cfdd822a47ed5397e07bb3ccb2dd58c00738d6b13701798bda0064736f6c6343000706003341546f6b656e4d6f636b3a20756e6465726c79696e674173736574206164647265737320697320746865207a65726f2061646472657373",
  "linkReferences": {},
  "deployedLinkReferences": {}
}